{
    "_format": "hh-sol-artifact-1",
    "contractName": "BethelInvoice",
    "sourceName": "contracts/BethelInvoice.sol",
    "abi": [
        {
            "inputs": [],
            "stateMutability": "nonpayable",
            "type": "constructor"
        },
        {
            "anonymous": false,
            "inputs": [
                {
                    "indexed": false,
                    "internalType": "address",
                    "name": "owner",
                    "type": "address"
                },
                {
                    "indexed": false,
                    "internalType": "string",
                    "name": "did",
                    "type": "string"
                },
                {
                    "indexed": false,
                    "internalType": "uint256",
                    "name": "storageSize",
                    "type": "uint256"
                },
                {
                    "indexed": false,
                    "internalType": "uint256",
                    "name": "createTime",
                    "type": "uint256"
                }
            ],
            "name": "FreeSpaceGranted",
            "type": "event"
        },
        {
            "anonymous": false,
            "inputs": [
                {
                    "indexed": false,
                    "internalType": "uint8",
                    "name": "version",
                    "type": "uint8"
                }
            ],
            "name": "Initialized",
            "type": "event"
        },
        {
            "anonymous": false,
            "inputs": [
                {
                    "indexed": false,
                    "internalType": "string",
                    "name": "owner",
                    "type": "string"
                },
                {
                    "indexed": false,
                    "internalType": "uint256",
                    "name": "storageSize",
                    "type": "uint256"
                },
                {
                    "indexed": false,
                    "internalType": "uint256",
                    "name": "createTime",
                    "type": "uint256"
                }
            ],
            "name": "PurchasedPaidSpace",
            "type": "event"
        },
        {
            "anonymous": false,
            "inputs": [
                {
                    "indexed": false,
                    "internalType": "address",
                    "name": "owner",
                    "type": "address"
                },
                {
                    "indexed": false,
                    "internalType": "string",
                    "name": "did",
                    "type": "string"
                },
                {
                    "indexed": false,
                    "internalType": "uint256",
                    "name": "usedSpace",
                    "type": "uint256"
                },
                {
                    "indexed": false,
                    "internalType": "uint256",
                    "name": "currentTime",
                    "type": "uint256"
                }
            ],
            "name": "SpaceUsed",
            "type": "event"
        },
        {
            "inputs": [
                {
                    "internalType": "string",
                    "name": "_did",
                    "type": "string"
                }
            ],
            "name": "checkPackageActivate",
            "outputs": [
                {
                    "internalType": "bool",
                    "name": "success",
                    "type": "bool"
                }
            ],
            "stateMutability": "view",
            "type": "function"
        },
        {
            "inputs": [
                {
                    "internalType": "string",
                    "name": "_did",
                    "type": "string"
                }
            ],
            "name": "checkPackageExpire",
            "outputs": [
                {
                    "internalType": "bool",
                    "name": "success",
                    "type": "bool"
                }
            ],
            "stateMutability": "view",
            "type": "function"
        },
        {
            "inputs": [
                {
                    "internalType": "string",
                    "name": "_did",
                    "type": "string"
                }
            ],
            "name": "checkPackageSpace",
            "outputs": [
                {
                    "internalType": "uint256",
                    "name": "space",
                    "type": "uint256"
                }
            ],
            "stateMutability": "view",
            "type": "function"
        },
        {
            "inputs": [
                {
                    "internalType": "uint256",
                    "name": "_batchSize",
                    "type": "uint256"
                },
                {
                    "internalType": "string",
                    "name": "_did",
                    "type": "string"
                }
            ],
            "name": "checkPackageValidation",
            "outputs": [
                {
                    "internalType": "bool",
                    "name": "success",
                    "type": "bool"
                }
            ],
            "stateMutability": "view",
            "type": "function"
        },
        {
            "inputs": [
                {
                    "internalType": "string",
                    "name": "_did",
                    "type": "string"
                },
                {
                    "internalType": "address",
                    "name": "_owner",
                    "type": "address"
                }
            ],
            "name": "getCurrentPackage",
            "outputs": [
                {
                    "internalType": "bool",
                    "name": "_success",
                    "type": "bool"
                },
                {
                    "internalType": "string",
                    "name": "_packageName",
                    "type": "string"
                },
                {
                    "internalType": "uint256",
                    "name": "_duration",
                    "type": "uint256"
                }
            ],
            "stateMutability": "view",
            "type": "function"
        },
        {
            "inputs": [
                {
                    "internalType": "enum IBethelInvoice.Packages",
                    "name": "_package",
                    "type": "uint8"
                },
                {
                    "internalType": "string",
                    "name": "_did",
                    "type": "string"
                },
                {
                    "internalType": "uint256",
                    "name": "_duration",
                    "type": "uint256"
                }
            ],
            "name": "getPaidSpace",
            "outputs": [],
            "stateMutability": "nonpayable",
            "type": "function"
        },
        {
            "inputs": [
                {
                    "internalType": "string",
                    "name": "_did",
                    "type": "string"
                }
            ],
            "name": "getUsedSpace",
            "outputs": [
                {
                    "internalType": "uint256",
                    "name": "space",
                    "type": "uint256"
                }
            ],
            "stateMutability": "view",
            "type": "function"
        },
        {
            "inputs": [
                {
                    "internalType": "string",
                    "name": "_did",
                    "type": "string"
                },
                {
                    "internalType": "address",
                    "name": "_owner",
                    "type": "address"
                }
            ],
            "name": "grantFreeSpace",
            "outputs": [],
            "stateMutability": "nonpayable",
            "type": "function"
        },
        {
            "inputs": [
                {
                    "internalType": "address",
                    "name": "admin",
                    "type": "address"
                }
            ],
            "name": "initialize",
            "outputs": [],
            "stateMutability": "nonpayable",
            "type": "function"
        },
        {
            "inputs": [
                {
                    "internalType": "string",
                    "name": "_did",
                    "type": "string"
                }
            ],
            "name": "isActivatedFreePlan",
            "outputs": [
                {
                    "internalType": "bool",
                    "name": "_success",
                    "type": "bool"
                }
            ],
            "stateMutability": "view",
            "type": "function"
        },
        {
            "inputs": [],
            "name": "num",
            "outputs": [
                {
                    "internalType": "uint256",
                    "name": "",
                    "type": "uint256"
                }
            ],
            "stateMutability": "view",
            "type": "function"
        },
        {
            "inputs": [
                {
                    "internalType": "uint256",
                    "name": "_batchSize",
                    "type": "uint256"
                },
                {
                    "internalType": "string",
                    "name": "_did",
                    "type": "string"
                },
                {
                    "internalType": "address",
                    "name": "_owner",
                    "type": "address"
                }
            ],
            "name": "useSpace",
            "outputs": [],
            "stateMutability": "nonpayable",
            "type": "function"
        }
    ],
    "bytecode": "0x608060405234801561001057600080fd5b50600054610100900460ff16158080156100315750600054600160ff909116105b8061004b5750303b15801561004b575060005460ff166001145b6100b25760405162461bcd60e51b815260206004820152602e60248201527f496e697469616c697a61626c653a20636f6e747261637420697320616c72656160448201526d191e481a5b9a5d1a585b1a5e995960921b606482015260840160405180910390fd5b6000805460ff1916600117905580156100d5576000805461ff0019166101001790555b801561011b576000805461ff0019169055604051600181527f7f26b83ff96e1f2b6a682f133852f6798a09c465da95921460cefb38474024989060200160405180910390a15b50611c318061012b6000396000f3fe608060405234801561001057600080fd5b50600436106100a45760003560e01c8063160ce165146100a95780632c470c73146100d45780633008b8bf146100e95780634e6af07e1461010c5780634e70b1dc1461011f5780635549f56b146101365780636ae4c5e2146101495780639f36e7221461015c578063b958d9c41461016f578063c4d66de814610182578063f5104f6d14610195578063fd3fb7ff146101a8575b600080fd5b6100bc6100b7366004611671565b6101bb565b6040516100cb9392919061170e565b60405180910390f35b6100e76100e2366004611739565b610410565b005b6100fc6100f7366004611795565b610a58565b60405190151581526020016100cb565b6100fc61011a3660046117d1565b610aeb565b61012860065481565b6040519081526020016100cb565b6100e7610144366004611817565b610c81565b610128610157366004611795565b610df1565b6100fc61016a366004611795565b610f34565b6100fc61017d366004611795565b610f7f565b6100e761019036600461186d565b611083565b6100e76101a3366004611671565b6111a9565b6101286101b6366004611795565b6113ad565b6000606060008085511180156101d957506001600160a01b03841615155b6101fe5760405162461bcd60e51b81526004016101f59061188f565b60405180910390fd5b8460405160200161020f91906118c3565b6040516020818303038152906040528051906020012060038660405161023591906118c3565b9081526040516020918190038201812061025192909101611919565b60405160208183030381529060405280519060200120036103e657600060038660405161027e91906118c3565b9081526040519081900360200181206001015460ff16915060009062278d00906003906102ac908a906118c3565b9081526020016040518091039020600501546102c891906119a5565b905060008260038111156102de576102de6119c7565b0361030e57604080518082019091526005815264426173696360d81b602082015260019550935091506104099050565b6001826003811115610322576103226119c7565b036103545760408051808201909152600781526629ba30b93a32b960c91b602082015260019550935091506104099050565b6002826003811115610368576103686119c7565b0361039a57604080518082019091526007815266416476616e636560c81b602082015260019550935091506104099050565b60038260038111156103ae576103ae6119c7565b036103e35760408051808201909152600a815269456e746572707269736560b01b602082015260019550935091506104099050565b50505b50506040805180820190915260048152634e6f6e6560e01b602082015260009150815b9250925092565b600082511180156104215750600081115b801561045b5750600083600381111561043c5761043c6119c7565b11801561045b57506002836003811115610458576104586119c7565b11155b6104b65760405162461bcd60e51b815260206004820152602660248201527f4469642c204475726174696f6e2c205061636b6167652063616e6e6f7420626560448201526520656d70747960d01b60648201526084016101f5565b60008360038111156104ca576104ca6119c7565b036105135760405162461bcd60e51b81526020600482015260196024820152782130b9b4b190383630b71034b9903090333932b290383630b760391b60448201526064016101f5565b8160405160200161052491906118c3565b6040516020818303038152906040528051906020012060048360405161054a91906118c3565b9081526040516020918190038201812061056692909101611919565b6040516020818303038152906040528051906020012014801561060a575060038260405161059491906118c3565b908152604051602091819003820181206105b092909101611919565b604051602081830303815290604052805190602001206004836040516105d691906118c3565b908152604051602091819003820181206105f292909101611919565b60405160208183030381529060405280519060200120145b61064a5760405162461bcd60e51b8152602060048201526011602482015270155cd95c881a5cc81b9bdd081d985b1a59607a1b60448201526064016101f5565b600080610657858561146e565b915091508060048560405161066c91906118c3565b90815260200160405180910390206001015411156107085760405162461bcd60e51b815260206004820152604d60248201527f54686973207061636b616765206973206e6f7420656e6f75676820746f20686f60448201527f6c6420796f75722063757272656e7420757365642073706163652e204275792060648201526c3a3432903732bc3a10383630b760991b608482015260a4016101f5565b8160038560405161071991906118c3565b908152602001604051809103902060010160006101000a81548160ff0219169083600381111561074b5761074b6119c7565b02179055508060038560405161076191906118c3565b9081526020016040518091039020600201819055504260038560405161078791906118c3565b90815260405190819003602001902060030155600183900361082a576107b062278d00426119dd565b6003856040516107c091906118c3565b90815260200160405180910390206004018190555062278d006003856040516107e991906118c3565b90815260200160405180910390206005018190555062278d0060048560405161081291906118c3565b908152604051908190036020019020600301556109a6565b826003036108a15761083f6276a700426119dd565b60038560405161084f91906118c3565b9081526020016040518091039020600401819055506276a70060038560405161087891906118c3565b9081526020016040518091039020600501819055506276a70060048560405161081291906118c3565b82600603610918576108b662ed4e00426119dd565b6003856040516108c691906118c3565b90815260200160405180910390206004018190555062ed4e006003856040516108ef91906118c3565b90815260200160405180910390206005018190555062ed4e0060048560405161081291906118c3565b82600c036109a65761092e6301da9c00426119dd565b60038560405161093e91906118c3565b9081526020016040518091039020600401819055506301da9c0060038560405161096891906118c3565b9081526020016040518091039020600501819055506301da9c0060048560405161099291906118c3565b908152604051908190036020019020600301555b6004846040516109b691906118c3565b908152602001604051809103902060010154816109d391906119f0565b6004856040516109e391906118c3565b9081526020016040518091039020600201819055507f41a95a66497b7f55ba70a81c578a788613ca86649ed530717ff8ae4749be42368482600387604051610a2b91906118c3565b90815260405190819003602001812060030154610a49939291611a03565b60405180910390a15050505050565b600080825111610a7a5760405162461bcd60e51b81526004016101f590611a28565b81604051602001610a8b91906118c3565b60405160208183030381529060405280519060200120600383604051610ab191906118c3565b90815260405160209181900382018120610acd92909101611919565b60405160208183030381529060405280519060200120149050919050565b60008083118015610afd575060008251115b610b495760405162461bcd60e51b815260206004820152601e60248201527f426174636873697a652c204469642063616e6e6f7420626520656d707479000060448201526064016101f5565b81604051602001610b5a91906118c3565b60405160208183030381529060405280519060200120600383604051610b8091906118c3565b90815260405160209181900382018120610b9c92909101611919565b6040516020818303038152906040528051906020012014610bcf5760405162461bcd60e51b81526004016101f590611a55565b42600383604051610be091906118c3565b9081526020016040518091039020600401541015610c105760405162461bcd60e51b81526004016101f590611a8a565b82600483604051610c2191906118c3565b9081526020016040518091039020600201541015610c775760405162461bcd60e51b81526020600482015260136024820152724e6f2073706163657320617661696c61626c6560681b60448201526064016101f5565b5060015b92915050565b600083118015610c92575060008251115b8015610ca657506001600160a01b03811615155b610d005760405162461bcd60e51b815260206004820152602560248201527f426174636873697a652c204469642c204f776e65722063616e6e6f7420626520604482015264656d70747960d81b60648201526084016101f5565b82600483604051610d1191906118c3565b90815260200160405180910390206001016000828254610d3191906119dd565b9250508190555082600483604051610d4991906118c3565b90815260200160405180910390206002016000828254610d6991906119f0565b925050819055507fc91937af2ba7c2f1edb9254b3b513b16bbddf5ea0569c406c1a4be9c6c087f528183600485604051610da391906118c3565b908152602001604051809103902060010154600486604051610dc591906118c3565b90815260405190819003602001812060020154610de494939291611ab6565b60405180910390a1505050565b600080825111610e135760405162461bcd60e51b81526004016101f590611a28565b81604051602001610e2491906118c3565b60405160208183030381529060405280519060200120600383604051610e4a91906118c3565b90815260405160209181900382018120610e6692909101611919565b6040516020818303038152906040528051906020012014610e995760405162461bcd60e51b81526004016101f590611a55565b42600383604051610eaa91906118c3565b9081526020016040518091039020600401541015610eda5760405162461bcd60e51b81526004016101f590611a8a565b6000600483604051610eec91906118c3565b90815260200160405180910390206002015411610f0b57506000919050565b600482604051610f1b91906118c3565b9081526020016040518091039020600201549050919050565b600080825111610f565760405162461bcd60e51b81526004016101f590611a28565b600582604051610f6691906118c3565b9081526040519081900360200190205460ff1692915050565b600080825111610fa15760405162461bcd60e51b81526004016101f590611a28565b81604051602001610fb291906118c3565b60405160208183030381529060405280519060200120600383604051610fd891906118c3565b90815260405160209181900382018120610ff492909101611919565b60405160208183030381529060405280519060200120146110575760405162461bcd60e51b815260206004820152601e60248201527f4e6f207061636b6167652063757272656e746c7920616374697661746564000060448201526064016101f5565b4260038360405161106891906118c3565b90815260200160405180910390206004015411159050919050565b600054610100900460ff16158080156110a35750600054600160ff909116105b806110bd5750303b1580156110bd575060005460ff166001145b6111205760405162461bcd60e51b815260206004820152602e60248201527f496e697469616c697a61626c653a20636f6e747261637420697320616c72656160448201526d191e481a5b9a5d1a585b1a5e995960921b60648201526084016101f5565b6000805460ff191660011790558015611143576000805461ff0019166101001790555b600280546001600160a01b0319166001600160a01b03841617905580156111a5576000805461ff0019169055604051600181527f7f26b83ff96e1f2b6a682f133852f6798a09c465da95921460cefb3847402498906020015b60405180910390a15b5050565b600082511180156111c257506001600160a01b03811615155b6111de5760405162461bcd60e51b81526004016101f59061188f565b6040805160c0810190915282815260208101600081526020016340000000815260200142815260200162278d004261121691906119dd565b815260200162278d0081525060038360405161123291906118c3565b9081526040519081900360200190208151819061124f9082611b3c565b50602082015160018083018054909160ff1990911690836003811115611277576112776119c7565b021790555060408201518160020155606082015181600301556080820151816004015560a082015181600501559050506040518060800160405280838152602001600081526020016340000000815260200162278d008152506004836040516112e091906118c3565b908152604051908190036020019020815181906112fd9082611b3c565b50602082015181600101556040820151816002015560608201518160030155905050600160058360405161133191906118c3565b908152602001604051809103902060006101000a81548160ff0219169083151502179055507f8a5379c47d10441c1b359b92c8af27110d352a270c7c4fc9ed50b863e66963f88183634000000060038660405161138e91906118c3565b9081526040519081900360200181206003015461119c94939291611ab6565b6000808251116113cf5760405162461bcd60e51b81526004016101f590611a28565b816040516020016113e091906118c3565b6040516020818303038152906040528051906020012060038360405161140691906118c3565b9081526040516020918190038201812061142292909101611919565b60405160208183030381529060405280519060200120036114665760048260405161144d91906118c3565b9081526020016040518091039020600101549050919050565b506000919050565b600080600083511180156114b057506000846003811115611491576114916119c7565b1180156114b0575060028460038111156114ad576114ad6119c7565b11155b6114fc5760405162461bcd60e51b815260206004820152601d60248201527f4469642c205061636b616765732063616e6e6f7420626520656d70747900000060448201526064016101f5565b6001846003811115611510576115106119c7565b0361155657600060058460405161152791906118c3565b908152604051908190036020019020805491151560ff199092169190911790555060019050600160281b6115ac565b600284600381111561156a5761156a6119c7565b036115ac57600060058460405161158191906118c3565b908152604051908190036020019020805491151560ff199092169190911790555060029050600560281b5b9250929050565b634e487b7160e01b600052604160045260246000fd5b600082601f8301126115da57600080fd5b81356001600160401b03808211156115f4576115f46115b3565b604051601f8301601f19908116603f0116810190828211818310171561161c5761161c6115b3565b8160405283815286602085880101111561163557600080fd5b836020870160208301376000602085830101528094505050505092915050565b80356001600160a01b038116811461166c57600080fd5b919050565b6000806040838503121561168457600080fd5b82356001600160401b0381111561169a57600080fd5b6116a6858286016115c9565b9250506116b560208401611655565b90509250929050565b60005b838110156116d95781810151838201526020016116c1565b50506000910152565b600081518084526116fa8160208601602086016116be565b601f01601f19169290920160200192915050565b831515815260606020820152600061172960608301856116e2565b9050826040830152949350505050565b60008060006060848603121561174e57600080fd5b83356004811061175d57600080fd5b925060208401356001600160401b0381111561177857600080fd5b611784868287016115c9565b925050604084013590509250925092565b6000602082840312156117a757600080fd5b81356001600160401b038111156117bd57600080fd5b6117c9848285016115c9565b949350505050565b600080604083850312156117e457600080fd5b8235915060208301356001600160401b0381111561180157600080fd5b61180d858286016115c9565b9150509250929050565b60008060006060848603121561182c57600080fd5b8335925060208401356001600160401b0381111561184957600080fd5b611855868287016115c9565b92505061186460408501611655565b90509250925092565b60006020828403121561187f57600080fd5b61188882611655565b9392505050565b6020808252601a90820152794469642c204f776e65722063616e6e6f7420626520656d70747960301b604082015260600190565b600082516118d58184602087016116be565b9190910192915050565b600181811c908216806118f357607f821691505b60208210810361191357634e487b7160e01b600052602260045260246000fd5b50919050565b6000808354611927816118df565b6001828116801561193f576001811461195457611983565b60ff1984168752821515830287019450611983565b8760005260208060002060005b8581101561197a5781548a820152908401908201611961565b50505082870194505b50929695505050505050565b634e487b7160e01b600052601160045260246000fd5b6000826119c257634e487b7160e01b600052601260045260246000fd5b500490565b634e487b7160e01b600052602160045260246000fd5b80820180821115610c7b57610c7b61198f565b81810381811115610c7b57610c7b61198f565b606081526000611a1660608301866116e2565b60208301949094525060400152919050565b6020808252601390820152724469642063616e6e6f7420626520656d70747960681b604082015260600190565b6020808252601b908201527a4e6f207061636b6167652063757272656e746c792061637469766560281b604082015260600190565b602080825260129082015271141858dad859d9481a5cc8195e1c1a5c995960721b604082015260600190565b6001600160a01b0385168152608060208201819052600090611ada908301866116e2565b6040830194909452506060015292915050565b601f821115611b3757600081815260208120601f850160051c81016020861015611b145750805b601f850160051c820191505b81811015611b3357828155600101611b20565b5050505b505050565b81516001600160401b03811115611b5557611b556115b3565b611b6981611b6384546118df565b84611aed565b602080601f831160018114611b9e5760008415611b865750858301515b600019600386901b1c1916600185901b178555611b33565b600085815260208120601f198616915b82811015611bcd57888601518255948401946001909101908401611bae565b5085821015611beb5787850151600019600388901b60f8161c191681555b5050505050600190811b0190555056fea2646970667358221220bb70f7e413a3ba8b441be61d3cd1ec53fdc0ce693575aa6a8e5fa747e98ed30a64736f6c63430008140033",
    "linkReferences": {},
    "deployedLinkReferences": {}
}