{
  "_format": "hh-sol-artifact-1",
  "contractName": "FileStorage",
  "sourceName": "contracts/FileStorage.sol",
  "abi": [
    {
      "inputs": [
        {
          "internalType": "address",
          "name": "_hasher",
          "type": "address"
        },
        {
          "internalType": "address",
          "name": "_verifier",
          "type": "address"
        }
      ],
      "stateMutability": "nonpayable",
      "type": "constructor"
    },
    {
      "anonymous": false,
      "inputs": [
        {
          "indexed": true,
          "internalType": "string",
          "name": "_did",
          "type": "string"
        },
        {
          "indexed": true,
          "internalType": "string",
          "name": "_batchhash",
          "type": "string"
        },
        {
          "indexed": false,
          "internalType": "bool",
          "name": "isBatchUploaded",
          "type": "bool"
        }
      ],
      "name": "BatchUploaded",
      "type": "event"
    },
    {
      "anonymous": false,
      "inputs": [
        {
          "indexed": true,
          "internalType": "string",
          "name": "_did",
          "type": "string"
        },
        {
          "indexed": false,
          "internalType": "bool",
          "name": "_success",
          "type": "bool"
        }
      ],
      "name": "BatchVerified",
      "type": "event"
    },
    {
      "anonymous": false,
      "inputs": [
        {
          "indexed": true,
          "internalType": "bytes32",
          "name": "chunkroot",
          "type": "bytes32"
        },
        {
          "indexed": false,
          "internalType": "uint256[10]",
          "name": "chunkHashPairings",
          "type": "uint256[10]"
        },
        {
          "indexed": false,
          "internalType": "uint8[10]",
          "name": "chunkPairDirection",
          "type": "uint8[10]"
        }
      ],
      "name": "ChunkCollected",
      "type": "event"
    },
    {
      "anonymous": false,
      "inputs": [
        {
          "indexed": true,
          "internalType": "string",
          "name": "_did",
          "type": "string"
        },
        {
          "indexed": true,
          "internalType": "string",
          "name": "_fileHash",
          "type": "string"
        },
        {
          "indexed": false,
          "internalType": "string",
          "name": "_Cid",
          "type": "string"
        },
        {
          "indexed": false,
          "internalType": "bool",
          "name": "added",
          "type": "bool"
        }
      ],
      "name": "ChunksAdded",
      "type": "event"
    },
    {
      "anonymous": false,
      "inputs": [
        {
          "indexed": true,
          "internalType": "bytes32",
          "name": "batchRoot",
          "type": "bytes32"
        },
        {
          "indexed": false,
          "internalType": "uint256[10]",
          "name": "fileHashPairings",
          "type": "uint256[10]"
        },
        {
          "indexed": false,
          "internalType": "uint8[10]",
          "name": "filePairDirection",
          "type": "uint8[10]"
        }
      ],
      "name": "FileCollected",
      "type": "event"
    },
    {
      "anonymous": false,
      "inputs": [
        {
          "indexed": true,
          "internalType": "string",
          "name": "_ownerDid",
          "type": "string"
        },
        {
          "indexed": true,
          "internalType": "string",
          "name": "_shareDid",
          "type": "string"
        },
        {
          "indexed": true,
          "internalType": "string",
          "name": "_fileHash",
          "type": "string"
        }
      ],
      "name": "FileShared",
      "type": "event"
    },
    {
      "anonymous": false,
      "inputs": [
        {
          "indexed": true,
          "internalType": "string",
          "name": "_did",
          "type": "string"
        },
        {
          "indexed": true,
          "internalType": "string",
          "name": "_fileHash",
          "type": "string"
        },
        {
          "indexed": false,
          "internalType": "bool",
          "name": "isFileUploaded",
          "type": "bool"
        }
      ],
      "name": "FileUploaded",
      "type": "event"
    },
    {
      "anonymous": false,
      "inputs": [
        {
          "indexed": false,
          "internalType": "address",
          "name": "owner",
          "type": "address"
        },
        {
          "indexed": false,
          "internalType": "string",
          "name": "did",
          "type": "string"
        },
        {
          "indexed": false,
          "internalType": "uint256",
          "name": "storageSize",
          "type": "uint256"
        },
        {
          "indexed": false,
          "internalType": "uint256",
          "name": "createTime",
          "type": "uint256"
        }
      ],
      "name": "FreeSpaceGranted",
      "type": "event"
    },
    {
      "anonymous": false,
      "inputs": [
        {
          "indexed": true,
          "internalType": "string",
          "name": "_did",
          "type": "string"
        },
        {
          "indexed": false,
          "internalType": "bool",
          "name": "_success",
          "type": "bool"
        }
      ],
      "name": "IsUserAdded",
      "type": "event"
    },
    {
      "anonymous": false,
      "inputs": [
        {
          "indexed": true,
          "internalType": "address",
          "name": "_owner",
          "type": "address"
        },
        {
          "indexed": false,
          "internalType": "string",
          "name": "_caller",
          "type": "string"
        }
      ],
      "name": "KYCResponseStored",
      "type": "event"
    },
    {
      "anonymous": false,
      "inputs": [
        {
          "indexed": false,
          "internalType": "string",
          "name": "owner",
          "type": "string"
        },
        {
          "indexed": false,
          "internalType": "uint256",
          "name": "storageSize",
          "type": "uint256"
        },
        {
          "indexed": false,
          "internalType": "uint256",
          "name": "createTime",
          "type": "uint256"
        }
      ],
      "name": "PurchasedPaidSpace",
      "type": "event"
    },
    {
      "anonymous": false,
      "inputs": [
        {
          "indexed": true,
          "internalType": "string",
          "name": "_did",
          "type": "string"
        },
        {
          "indexed": false,
          "internalType": "bool",
          "name": "_success",
          "type": "bool"
        }
      ],
      "name": "SharedFileVerified",
      "type": "event"
    },
    {
      "anonymous": false,
      "inputs": [
        {
          "indexed": false,
          "internalType": "address",
          "name": "owner",
          "type": "address"
        },
        {
          "indexed": false,
          "internalType": "string",
          "name": "did",
          "type": "string"
        },
        {
          "indexed": false,
          "internalType": "uint256",
          "name": "usedSpace",
          "type": "uint256"
        },
        {
          "indexed": false,
          "internalType": "uint256",
          "name": "currentTime",
          "type": "uint256"
        }
      ],
      "name": "SpaceUsed",
      "type": "event"
    },
    {
      "anonymous": false,
      "inputs": [
        {
          "indexed": true,
          "internalType": "string",
          "name": "_did",
          "type": "string"
        },
        {
          "indexed": false,
          "internalType": "address",
          "name": "_owner",
          "type": "address"
        },
        {
          "indexed": false,
          "internalType": "uint256",
          "name": "_nullifierHash",
          "type": "uint256"
        }
      ],
      "name": "UserAdded",
      "type": "event"
    },
    {
      "anonymous": false,
      "inputs": [
        {
          "indexed": true,
          "internalType": "string",
          "name": "_did",
          "type": "string"
        },
        {
          "indexed": false,
          "internalType": "uint256",
          "name": "useroot",
          "type": "uint256"
        },
        {
          "indexed": false,
          "internalType": "uint256[10]",
          "name": "userHashPairings",
          "type": "uint256[10]"
        },
        {
          "indexed": false,
          "internalType": "uint8[10]",
          "name": "userPairDirection",
          "type": "uint8[10]"
        }
      ],
      "name": "UserCollected",
      "type": "event"
    },
    {
      "anonymous": false,
      "inputs": [
        {
          "indexed": true,
          "internalType": "string",
          "name": "_userdid",
          "type": "string"
        },
        {
          "indexed": true,
          "internalType": "uint256",
          "name": "totalTokens",
          "type": "uint256"
        }
      ],
      "name": "UserMinted",
      "type": "event"
    },
    {
      "anonymous": false,
      "inputs": [
        {
          "indexed": true,
          "internalType": "string",
          "name": "_userdid",
          "type": "string"
        },
        {
          "indexed": true,
          "internalType": "uint256",
          "name": "balanceToken",
          "type": "uint256"
        }
      ],
      "name": "UserPayed",
      "type": "event"
    },
    {
      "anonymous": false,
      "inputs": [
        {
          "indexed": false,
          "internalType": "address",
          "name": "sender",
          "type": "address"
        },
        {
          "indexed": false,
          "internalType": "uint256",
          "name": "nullifierHash",
          "type": "uint256"
        },
        {
          "indexed": false,
          "internalType": "bool",
          "name": "isVerified",
          "type": "bool"
        }
      ],
      "name": "UserVerified",
      "type": "event"
    },
    {
      "inputs": [
        {
          "internalType": "string",
          "name": "",
          "type": "string"
        }
      ],
      "name": "activeStorage",
      "outputs": [
        {
          "internalType": "string",
          "name": "owner",
          "type": "string"
        },
        {
          "internalType": "enum BethelInvoice.Packages",
          "name": "packagename",
          "type": "uint8"
        },
        {
          "internalType": "uint256",
          "name": "space",
          "type": "uint256"
        },
        {
          "internalType": "uint256",
          "name": "createTime",
          "type": "uint256"
        },
        {
          "internalType": "uint256",
          "name": "expireTime",
          "type": "uint256"
        }
      ],
      "stateMutability": "view",
      "type": "function"
    },
    {
      "inputs": [
        {
          "internalType": "string",
          "name": "_strcommitment",
          "type": "string"
        },
        {
          "internalType": "string",
          "name": "_did",
          "type": "string"
        },
        {
          "internalType": "string",
          "name": "_strnullifierHash",
          "type": "string"
        },
        {
          "internalType": "address",
          "name": "_owner",
          "type": "address"
        }
      ],
      "name": "adduser",
      "outputs": [],
      "stateMutability": "nonpayable",
      "type": "function"
    },
    {
      "inputs": [
        {
          "internalType": "string",
          "name": "",
          "type": "string"
        },
        {
          "internalType": "uint256",
          "name": "",
          "type": "uint256"
        }
      ],
      "name": "adressList",
      "outputs": [
        {
          "internalType": "address",
          "name": "",
          "type": "address"
        }
      ],
      "stateMutability": "view",
      "type": "function"
    },
    {
      "inputs": [
        {
          "internalType": "address",
          "name": "",
          "type": "address"
        }
      ],
      "name": "backendTestWord",
      "outputs": [
        {
          "internalType": "string",
          "name": "",
          "type": "string"
        }
      ],
      "stateMutability": "view",
      "type": "function"
    },
    {
      "inputs": [
        {
          "internalType": "string",
          "name": "_did",
          "type": "string"
        }
      ],
      "name": "checkPackageActivate",
      "outputs": [
        {
          "internalType": "bool",
          "name": "success",
          "type": "bool"
        }
      ],
      "stateMutability": "view",
      "type": "function"
    },
    {
      "inputs": [
        {
          "internalType": "string",
          "name": "_did",
          "type": "string"
        }
      ],
      "name": "checkPackageExpire",
      "outputs": [
        {
          "internalType": "bool",
          "name": "success",
          "type": "bool"
        }
      ],
      "stateMutability": "view",
      "type": "function"
    },
    {
      "inputs": [
        {
          "internalType": "string",
          "name": "_did",
          "type": "string"
        }
      ],
      "name": "checkPackageSpace",
      "outputs": [
        {
          "internalType": "uint256",
          "name": "space",
          "type": "uint256"
        }
      ],
      "stateMutability": "view",
      "type": "function"
    },
    {
      "inputs": [
        {
          "internalType": "uint256",
          "name": "_batchSize",
          "type": "uint256"
        },
        {
          "internalType": "string",
          "name": "_did",
          "type": "string"
        }
      ],
      "name": "checkPackageValidation",
      "outputs": [
        {
          "internalType": "bool",
          "name": "success",
          "type": "bool"
        }
      ],
      "stateMutability": "view",
      "type": "function"
    },
    {
      "inputs": [
        {
          "internalType": "string",
          "name": "_did",
          "type": "string"
        }
      ],
      "name": "getAdressList",
      "outputs": [
        {
          "internalType": "address[]",
          "name": "",
          "type": "address[]"
        }
      ],
      "stateMutability": "view",
      "type": "function"
    },
    {
      "inputs": [],
      "name": "getAllBatches",
      "outputs": [
        {
          "components": [
            {
              "internalType": "string",
              "name": "Ownerdid",
              "type": "string"
            },
            {
              "internalType": "string",
              "name": "BatchHash",
              "type": "string"
            },
            {
              "internalType": "uint256",
              "name": "FilesCount",
              "type": "uint256"
            },
            {
              "internalType": "uint256",
              "name": "BatchSize",
              "type": "uint256"
            },
            {
              "internalType": "bool",
              "name": "Verified",
              "type": "bool"
            }
          ],
          "internalType": "struct FileContractInterface.Batch[]",
          "name": "",
          "type": "tuple[]"
        }
      ],
      "stateMutability": "view",
      "type": "function"
    },
    {
      "inputs": [],
      "name": "getAllSharedFiles",
      "outputs": [
        {
          "components": [
            {
              "internalType": "string",
              "name": "ownerDid",
              "type": "string"
            },
            {
              "internalType": "string",
              "name": "sharedDid",
              "type": "string"
            },
            {
              "internalType": "string",
              "name": "batchhash",
              "type": "string"
            },
            {
              "internalType": "string",
              "name": "fileHash",
              "type": "string"
            },
            {
              "internalType": "string",
              "name": "fileName",
              "type": "string"
            },
            {
              "internalType": "uint256",
              "name": "merkleTreeIndex",
              "type": "uint256"
            },
            {
              "internalType": "bool",
              "name": "verified",
              "type": "bool"
            },
            {
              "internalType": "string",
              "name": "ClaimMD5Hash",
              "type": "string"
            },
            {
              "internalType": "string",
              "name": "ClaimEncryptedValue",
              "type": "string"
            }
          ],
          "internalType": "struct FileContractInterface.SharedFile[]",
          "name": "",
          "type": "tuple[]"
        }
      ],
      "stateMutability": "view",
      "type": "function"
    },
    {
      "inputs": [
        {
          "internalType": "string",
          "name": "_batchhash",
          "type": "string"
        }
      ],
      "name": "getBatchClaim",
      "outputs": [
        {
          "components": [
            {
              "internalType": "string",
              "name": "ClaimEncryptedValue",
              "type": "string"
            },
            {
              "internalType": "string",
              "name": "ClaimMD5Hash",
              "type": "string"
            }
          ],
          "internalType": "struct FileContractInterface.Claim",
          "name": "",
          "type": "tuple"
        }
      ],
      "stateMutability": "view",
      "type": "function"
    },
    {
      "inputs": [
        {
          "internalType": "string",
          "name": "_did",
          "type": "string"
        },
        {
          "internalType": "string",
          "name": "_batchhash",
          "type": "string"
        },
        {
          "internalType": "string",
          "name": "_fileHash",
          "type": "string"
        }
      ],
      "name": "getBatchFile",
      "outputs": [
        {
          "internalType": "uint256",
          "name": "",
          "type": "uint256"
        }
      ],
      "stateMutability": "view",
      "type": "function"
    },
    {
      "inputs": [
        {
          "internalType": "string",
          "name": "_callerDid",
          "type": "string"
        },
        {
          "internalType": "string",
          "name": "_did",
          "type": "string"
        },
        {
          "internalType": "string",
          "name": "_batchhash",
          "type": "string"
        },
        {
          "internalType": "string",
          "name": "_fileHash",
          "type": "string"
        }
      ],
      "name": "getBatchFileCIDs",
      "outputs": [
        {
          "internalType": "uint256",
          "name": "",
          "type": "uint256"
        }
      ],
      "stateMutability": "view",
      "type": "function"
    },
    {
      "inputs": [
        {
          "internalType": "string",
          "name": "_did",
          "type": "string"
        }
      ],
      "name": "getCurrentPackage",
      "outputs": [
        {
          "internalType": "bool",
          "name": "_success",
          "type": "bool"
        },
        {
          "internalType": "string",
          "name": "_packageName",
          "type": "string"
        }
      ],
      "stateMutability": "view",
      "type": "function"
    },
    {
      "inputs": [
        {
          "internalType": "enum BethelInvoice.Packages",
          "name": "_package",
          "type": "uint8"
        },
        {
          "internalType": "string",
          "name": "_did",
          "type": "string"
        }
      ],
      "name": "getPaidSpace",
      "outputs": [
        {
          "internalType": "bool",
          "name": "success",
          "type": "bool"
        }
      ],
      "stateMutability": "nonpayable",
      "type": "function"
    },
    {
      "inputs": [
        {
          "internalType": "string",
          "name": "_did",
          "type": "string"
        },
        {
          "internalType": "string",
          "name": "_batchhash",
          "type": "string"
        },
        {
          "internalType": "string",
          "name": "_fileHash",
          "type": "string"
        }
      ],
      "name": "getShareFile",
      "outputs": [
        {
          "internalType": "uint256",
          "name": "",
          "type": "uint256"
        },
        {
          "internalType": "string",
          "name": "",
          "type": "string"
        }
      ],
      "stateMutability": "view",
      "type": "function"
    },
    {
      "inputs": [
        {
          "internalType": "string",
          "name": "_callerDid",
          "type": "string"
        },
        {
          "internalType": "string",
          "name": "_did",
          "type": "string"
        },
        {
          "internalType": "string",
          "name": "_batchhash",
          "type": "string"
        },
        {
          "internalType": "string",
          "name": "_fileHash",
          "type": "string"
        }
      ],
      "name": "getShareFileCIDs",
      "outputs": [
        {
          "internalType": "uint256",
          "name": "",
          "type": "uint256"
        },
        {
          "internalType": "string",
          "name": "_sharedFilename",
          "type": "string"
        }
      ],
      "stateMutability": "view",
      "type": "function"
    },
    {
      "inputs": [
        {
          "internalType": "string",
          "name": "_did",
          "type": "string"
        },
        {
          "internalType": "string",
          "name": "_fileHash",
          "type": "string"
        }
      ],
      "name": "getSharedFileClaim",
      "outputs": [
        {
          "components": [
            {
              "internalType": "string",
              "name": "ClaimEncryptedValue",
              "type": "string"
            },
            {
              "internalType": "string",
              "name": "ClaimMD5Hash",
              "type": "string"
            }
          ],
          "internalType": "struct FileContractInterface.Claim",
          "name": "",
          "type": "tuple"
        }
      ],
      "stateMutability": "view",
      "type": "function"
    },
    {
      "inputs": [],
      "name": "getTotalFilesCount",
      "outputs": [
        {
          "internalType": "uint256",
          "name": "_filesCount",
          "type": "uint256"
        },
        {
          "internalType": "uint256",
          "name": "_filesSize",
          "type": "uint256"
        }
      ],
      "stateMutability": "view",
      "type": "function"
    },
    {
      "inputs": [],
      "name": "getUserDid",
      "outputs": [
        {
          "internalType": "bool",
          "name": "success",
          "type": "bool"
        }
      ],
      "stateMutability": "view",
      "type": "function"
    },
    {
      "inputs": [
        {
          "internalType": "string",
          "name": "_did",
          "type": "string"
        },
        {
          "internalType": "address",
          "name": "_owner",
          "type": "address"
        }
      ],
      "name": "grantFreeSpace",
      "outputs": [
        {
          "internalType": "bool",
          "name": "success",
          "type": "bool"
        }
      ],
      "stateMutability": "nonpayable",
      "type": "function"
    },
    {
      "inputs": [
        {
          "internalType": "string",
          "name": "_did",
          "type": "string"
        }
      ],
      "name": "isActivatedFreePlan",
      "outputs": [
        {
          "internalType": "bool",
          "name": "",
          "type": "bool"
        }
      ],
      "stateMutability": "view",
      "type": "function"
    },
    {
      "inputs": [
        {
          "internalType": "string",
          "name": "",
          "type": "string"
        }
      ],
      "name": "isActiveFreePlan",
      "outputs": [
        {
          "internalType": "bool",
          "name": "",
          "type": "bool"
        }
      ],
      "stateMutability": "view",
      "type": "function"
    },
    {
      "inputs": [
        {
          "internalType": "string",
          "name": "",
          "type": "string"
        }
      ],
      "name": "isAdded",
      "outputs": [
        {
          "internalType": "bool",
          "name": "",
          "type": "bool"
        }
      ],
      "stateMutability": "view",
      "type": "function"
    },
    {
      "inputs": [
        {
          "internalType": "string",
          "name": "_did",
          "type": "string"
        }
      ],
      "name": "isUserAdded",
      "outputs": [
        {
          "internalType": "bool",
          "name": "success",
          "type": "bool"
        },
        {
          "internalType": "address",
          "name": "owner",
          "type": "address"
        }
      ],
      "stateMutability": "nonpayable",
      "type": "function"
    },
    {
      "inputs": [
        {
          "internalType": "string",
          "name": "_did",
          "type": "string"
        }
      ],
      "name": "retrieveAllSharedFiles",
      "outputs": [
        {
          "components": [
            {
              "internalType": "string",
              "name": "ownerDid",
              "type": "string"
            },
            {
              "internalType": "string",
              "name": "sharedDid",
              "type": "string"
            },
            {
              "internalType": "string",
              "name": "batchhash",
              "type": "string"
            },
            {
              "internalType": "string",
              "name": "fileHash",
              "type": "string"
            },
            {
              "internalType": "string",
              "name": "fileName",
              "type": "string"
            },
            {
              "internalType": "uint256",
              "name": "merkleTreeIndex",
              "type": "uint256"
            },
            {
              "internalType": "bool",
              "name": "verified",
              "type": "bool"
            },
            {
              "internalType": "string",
              "name": "ClaimMD5Hash",
              "type": "string"
            },
            {
              "internalType": "string",
              "name": "ClaimEncryptedValue",
              "type": "string"
            }
          ],
          "internalType": "struct FileContractInterface.SharedFile[]",
          "name": "",
          "type": "tuple[]"
        }
      ],
      "stateMutability": "view",
      "type": "function"
    },
    {
      "inputs": [
        {
          "internalType": "string",
          "name": "_did",
          "type": "string"
        },
        {
          "internalType": "string",
          "name": "_batchhash",
          "type": "string"
        },
        {
          "internalType": "uint256",
          "name": "_filescount",
          "type": "uint256"
        },
        {
          "components": [
            {
              "internalType": "string",
              "name": "FileHash",
              "type": "string"
            },
            {
              "internalType": "uint256",
              "name": "MerkleTreeIndex",
              "type": "uint256"
            }
          ],
          "internalType": "struct FileContractInterface.File[]",
          "name": "_files",
          "type": "tuple[]"
        },
        {
          "internalType": "uint256",
          "name": "_batchSize",
          "type": "uint256"
        },
        {
          "internalType": "string",
          "name": "_claimMD5Hash",
          "type": "string"
        },
        {
          "internalType": "string",
          "name": "_claimEncryptedValue",
          "type": "string"
        }
      ],
      "name": "saveFileBatch",
      "outputs": [
        {
          "internalType": "bool",
          "name": "",
          "type": "bool"
        }
      ],
      "stateMutability": "nonpayable",
      "type": "function"
    },
    {
      "inputs": [
        {
          "internalType": "string",
          "name": "_did",
          "type": "string"
        },
        {
          "internalType": "string",
          "name": "_fileHash",
          "type": "string"
        },
        {
          "internalType": "string",
          "name": "_ownerDid",
          "type": "string"
        },
        {
          "internalType": "string",
          "name": "_sharedDid",
          "type": "string"
        },
        {
          "internalType": "string",
          "name": "_batchhash",
          "type": "string"
        },
        {
          "internalType": "string",
          "name": "_fileName",
          "type": "string"
        },
        {
          "internalType": "string",
          "name": "_claimEncryptedValue",
          "type": "string"
        },
        {
          "internalType": "string",
          "name": "_claimMD5Hash",
          "type": "string"
        }
      ],
      "name": "savedShareFile",
      "outputs": [
        {
          "internalType": "bool",
          "name": "",
          "type": "bool"
        }
      ],
      "stateMutability": "nonpayable",
      "type": "function"
    },
    {
      "inputs": [
        {
          "internalType": "string",
          "name": "_fileHash",
          "type": "string"
        },
        {
          "internalType": "string",
          "name": "_ownerDid",
          "type": "string"
        },
        {
          "internalType": "string",
          "name": "_sharedDid",
          "type": "string"
        },
        {
          "internalType": "string",
          "name": "_batchhash",
          "type": "string"
        },
        {
          "internalType": "string",
          "name": "_fileName",
          "type": "string"
        },
        {
          "internalType": "string",
          "name": "_claimMD5Hash",
          "type": "string"
        },
        {
          "internalType": "string",
          "name": "_claimEncryptedValue",
          "type": "string"
        },
        {
          "internalType": "address",
          "name": "_owner",
          "type": "address"
        }
      ],
      "name": "shareFile",
      "outputs": [
        {
          "internalType": "bool",
          "name": "",
          "type": "bool"
        }
      ],
      "stateMutability": "nonpayable",
      "type": "function"
    },
    {
      "inputs": [
        {
          "internalType": "string",
          "name": "s",
          "type": "string"
        }
      ],
      "name": "stringToUint",
      "outputs": [
        {
          "internalType": "uint256",
          "name": "",
          "type": "uint256"
        }
      ],
      "stateMutability": "pure",
      "type": "function"
    },
    {
      "inputs": [
        {
          "internalType": "string",
          "name": "_did",
          "type": "string"
        },
        {
          "internalType": "string",
          "name": "_batchHash",
          "type": "string"
        }
      ],
      "name": "updateBatchArray",
      "outputs": [],
      "stateMutability": "nonpayable",
      "type": "function"
    },
    {
      "inputs": [
        {
          "internalType": "string",
          "name": "_did",
          "type": "string"
        },
        {
          "internalType": "string",
          "name": "_batchHash",
          "type": "string"
        }
      ],
      "name": "updateBatchVerify",
      "outputs": [
        {
          "internalType": "bool",
          "name": "",
          "type": "bool"
        }
      ],
      "stateMutability": "nonpayable",
      "type": "function"
    },
    {
      "inputs": [
        {
          "internalType": "string",
          "name": "_did",
          "type": "string"
        },
        {
          "internalType": "string",
          "name": "_batchHash",
          "type": "string"
        },
        {
          "internalType": "address",
          "name": "_owner",
          "type": "address"
        }
      ],
      "name": "updateBatchVerifyStatus",
      "outputs": [
        {
          "internalType": "bool",
          "name": "",
          "type": "bool"
        }
      ],
      "stateMutability": "nonpayable",
      "type": "function"
    },
    {
      "inputs": [
        {
          "internalType": "string",
          "name": "_callerDid",
          "type": "string"
        },
        {
          "internalType": "string",
          "name": "_did",
          "type": "string"
        },
        {
          "internalType": "string",
          "name": "_filehash",
          "type": "string"
        }
      ],
      "name": "updateSharedFileVerify",
      "outputs": [
        {
          "internalType": "bool",
          "name": "",
          "type": "bool"
        }
      ],
      "stateMutability": "nonpayable",
      "type": "function"
    },
    {
      "inputs": [
        {
          "internalType": "string",
          "name": "_did",
          "type": "string"
        },
        {
          "internalType": "string",
          "name": "_filehash",
          "type": "string"
        },
        {
          "internalType": "address",
          "name": "_owner",
          "type": "address"
        }
      ],
      "name": "updateSharedFileVerifyStatus",
      "outputs": [
        {
          "internalType": "bool",
          "name": "",
          "type": "bool"
        }
      ],
      "stateMutability": "nonpayable",
      "type": "function"
    },
    {
      "inputs": [
        {
          "internalType": "string",
          "name": "_did",
          "type": "string"
        },
        {
          "internalType": "string",
          "name": "_batchHash",
          "type": "string"
        }
      ],
      "name": "updateSharedFilesArray",
      "outputs": [],
      "stateMutability": "nonpayable",
      "type": "function"
    },
    {
      "inputs": [
        {
          "internalType": "string",
          "name": "_batchhash",
          "type": "string"
        },
        {
          "internalType": "uint256",
          "name": "_filescount",
          "type": "uint256"
        },
        {
          "components": [
            {
              "internalType": "string",
              "name": "FileHash",
              "type": "string"
            },
            {
              "internalType": "uint256",
              "name": "MerkleTreeIndex",
              "type": "uint256"
            }
          ],
          "internalType": "struct FileContractInterface.File[]",
          "name": "_files",
          "type": "tuple[]"
        },
        {
          "internalType": "uint256",
          "name": "_batchSize",
          "type": "uint256"
        },
        {
          "internalType": "string",
          "name": "_claimMD5Hash",
          "type": "string"
        },
        {
          "internalType": "string",
          "name": "_claimEncryptedValue",
          "type": "string"
        },
        {
          "internalType": "address",
          "name": "_owner",
          "type": "address"
        }
      ],
      "name": "uploadFileBatch",
      "outputs": [
        {
          "internalType": "bool",
          "name": "",
          "type": "bool"
        }
      ],
      "stateMutability": "nonpayable",
      "type": "function"
    },
    {
      "inputs": [
        {
          "internalType": "string",
          "name": "",
          "type": "string"
        }
      ],
      "name": "usedStorage",
      "outputs": [
        {
          "internalType": "string",
          "name": "owner",
          "type": "string"
        },
        {
          "internalType": "uint256",
          "name": "usedSpace",
          "type": "uint256"
        },
        {
          "internalType": "uint256",
          "name": "availableSpace",
          "type": "uint256"
        },
        {
          "internalType": "uint256",
          "name": "availableTimePeriod",
          "type": "uint256"
        }
      ],
      "stateMutability": "view",
      "type": "function"
    },
    {
      "inputs": [
        {
          "internalType": "uint256[2]",
          "name": "a",
          "type": "uint256[2]"
        },
        {
          "internalType": "uint256[2][2]",
          "name": "b",
          "type": "uint256[2][2]"
        },
        {
          "internalType": "uint256[2]",
          "name": "c",
          "type": "uint256[2]"
        },
        {
          "internalType": "uint256[2]",
          "name": "input",
          "type": "uint256[2]"
        },
        {
          "internalType": "string",
          "name": "_did",
          "type": "string"
        },
        {
          "internalType": "address",
          "name": "_owner",
          "type": "address"
        }
      ],
      "name": "verifyuser",
      "outputs": [
        {
          "internalType": "bool",
          "name": "verified",
          "type": "bool"
        }
      ],
      "stateMutability": "nonpayable",
      "type": "function"
    }
  ],
  "bytecode": "0x60006001556101c06040527f33418cd1669b4e7f4bf473ec2db9a489b3d6f9f11b91d0b3b6004432ab53d60b6080908152600080516020620062fc83398151915260a0526000805160206200633c83398151915260c0526000805160206200623c83398151915260e0526000805160206200631c833981519152610100526000805160206200629c83398151915261012052600080516020620062dc833981519152610140526000805160206200625c833981519152610160526000805160206200627c83398151915261018052600080516020620062bc8339815191526101a052620000f190600390600a62000271565b506024805460ff60a01b1916600560a11b179055600060255560408051610140810182527f33418cd1669b4e7f4bf473ec2db9a489b3d6f9f11b91d0b3b6004432ab53d60b8152600080516020620062fc83398151915260208201526000805160206200633c833981519152918101919091526000805160206200623c83398151915260608201526000805160206200631c83398151915260808201526000805160206200629c83398151915260a0820152600080516020620062dc83398151915260c08201526000805160206200625c83398151915260e08201526000805160206200627c833981519152610100820152600080516020620062bc8339815191526101208201526200020990602c90600a62000271565b503480156200021757600080fd5b506040516200635c3803806200635c8339810160408190526200023a91620002e8565b6001600055602480546001600160a01b039384166001600160a01b0319918216179091556023805492909316911617905562000320565b82600a8101928215620002a2579160200282015b82811115620002a257825182559160200191906001019062000285565b50620002b0929150620002b4565b5090565b5b80821115620002b05760008155600101620002b5565b80516001600160a01b0381168114620002e357600080fd5b919050565b60008060408385031215620002fc57600080fd5b6200030783620002cb565b91506200031760208401620002cb565b90509250929050565b615f0c80620003306000396000f3fe608060405234801561001057600080fd5b50600436106101d85760003560e01c806304b2263f146101dd57806304cdf15c1461020657806305b1736c1461022757806308caf33a1461023f57806309a163da1461026057806312f26a8f1461028357806314965f57146102b1578063162fa10d146102c45780631bd95155146102d7578063213a6764146102ea5780632e3d616e1461030b5780633008b8bf146103395780634157f9051461034c5780634e6af07e1461035f5780634ee5ff2e1461037257806352a92fb514610385578063581428211461039a5780635d570c5a146103c5578063670fbbd8146103d85780636ae4c5e2146103eb5780636e1d5556146103fe57806370b219201461043057806373ba236814610443578063775631b61461045657806379391abe1461047a5780637c1bf7c41461049a57806394a0e27c146104ad5780639d5d1dd0146104cd5780639f36e722146104e0578063aafe13a7146104f3578063b323db21146104fb578063b49be5201461051b578063b958d9c414610538578063d6a2e1c61461054b578063dda5ce441461055e578063e80e076b14610571578063ea5555df14610586578063ec79c50614610599578063f5104f6d146105ac578063f83d09e7146105bf575b600080fd5b6101f06101eb366004614a6f565b6105d2565b6040516101fd9190614afb565b60405180910390f35b610219610214366004614c2a565b610f73565b6040519081526020016101fd565b61022f61102d565b60405190151581526020016101fd565b61025261024d366004614c2a565b61105c565b6040516101fd929190614cb1565b61027361026e366004614a6f565b61111c565b6040516101fd9493929190614cca565b61022f610291366004614a6f565b805160208183018101805160218252928201919093012091525460ff1681565b61022f6102bf366004614d65565b6111d6565b61022f6102d2366004614e41565b61149a565b6102196102e5366004614a6f565b611553565b6102fd6102f8366004614a6f565b611651565b6040516101fd929190614eb4565b61022f610319366004614a6f565b8051602081830181018051603a8252928201919093012091525460ff1681565b61022f610347366004614a6f565b6118a1565b61022f61035a366004614ecf565b611921565b61022f61036d366004614ffa565b611a71565b61022f610380366004615040565b611bab565b61039861039336600461507d565b611fda565b005b6103ad6103a8366004615115565b612373565b6040516001600160a01b0390911681526020016101fd565b6102196103d3366004615159565b6123ba565b61022f6103e6366004614c2a565b612448565b6102196103f9366004614a6f565b61254a565b61041161040c366004614a6f565b61266d565b6040805192151583526001600160a01b039091166020830152016101fd565b61022f61043e366004615249565b6126c1565b61022f61045136600461530f565b6129fc565b610469610464366004614a6f565b612b0f565b6040516101fd95949392919061537e565b61048d61048836600461530f565b612bd5565b6040516101fd91906153d3565b6103986104a836600461530f565b612e75565b6104c06104bb36600461540c565b612f65565b6040516101fd919061542e565b61022f6104db366004614e41565b612fff565b61022f6104ee366004614a6f565b613017565b6101f0613042565b61050e610509366004614a6f565b6130f7565b6040516101fd9190615441565b610523613171565b604080519283526020830191909152016101fd565b61022f610546366004614a6f565b6131e4565b61048d610559366004614a6f565b6132cd565b61025261056c366004615159565b61350c565b6105796136a6565b6040516101fd919061548e565b61039861059436600461530f565b613888565b61022f6105a7366004615527565b613978565b61022f6105ba366004615666565b613d3e565b61022f6105cd3660046156b3565b613f0b565b60606000601e836040516105e6919061577f565b9081526020016040518091039020805480602002602001604051908101604052809291908181526020016000905b82821015610a625783829060005260206000209060090201604051806101200160405290816000820180546106489061579b565b80601f01602080910402602001604051908101604052809291908181526020018280546106749061579b565b80156106c15780601f10610696576101008083540402835291602001916106c1565b820191906000526020600020905b8154815290600101906020018083116106a457829003601f168201915b505050505081526020016001820180546106da9061579b565b80601f01602080910402602001604051908101604052809291908181526020018280546107069061579b565b80156107535780601f1061072857610100808354040283529160200191610753565b820191906000526020600020905b81548152906001019060200180831161073657829003601f168201915b5050505050815260200160028201805461076c9061579b565b80601f01602080910402602001604051908101604052809291908181526020018280546107989061579b565b80156107e55780601f106107ba576101008083540402835291602001916107e5565b820191906000526020600020905b8154815290600101906020018083116107c857829003601f168201915b505050505081526020016003820180546107fe9061579b565b80601f016020809104026020016040519081016040528092919081815260200182805461082a9061579b565b80156108775780601f1061084c57610100808354040283529160200191610877565b820191906000526020600020905b81548152906001019060200180831161085a57829003601f168201915b505050505081526020016004820180546108909061579b565b80601f01602080910402602001604051908101604052809291908181526020018280546108bc9061579b565b80156109095780601f106108de57610100808354040283529160200191610909565b820191906000526020600020905b8154815290600101906020018083116108ec57829003601f168201915b505050918352505060058201546020820152600682015460ff161515604082015260078201805460609092019161093f9061579b565b80601f016020809104026020016040519081016040528092919081815260200182805461096b9061579b565b80156109b85780601f1061098d576101008083540402835291602001916109b8565b820191906000526020600020905b81548152906001019060200180831161099b57829003601f168201915b505050505081526020016008820180546109d19061579b565b80601f01602080910402602001604051908101604052809291908181526020018280546109fd9061579b565b8015610a4a5780601f10610a1f57610100808354040283529160200191610a4a565b820191906000526020600020905b815481529060010190602001808311610a2d57829003601f168201915b50505050508152505081526020019060010190610614565b50505050905080600081518110610a7b57610a7b6157cf565b60200260200101516020015180519060200120838051906020012014610adb5760405162461bcd60e51b815260206004820152601060248201526f1554d154881b9bdd08185b1b1bddd95960821b60448201526064015b60405180910390fd5b601e83604051610aeb919061577f565b9081526020016040518091039020805480602002602001604051908101604052809291908181526020016000905b82821015610f67578382906000526020600020906009020160405180610120016040529081600082018054610b4d9061579b565b80601f0160208091040260200160405190810160405280929190818152602001828054610b799061579b565b8015610bc65780601f10610b9b57610100808354040283529160200191610bc6565b820191906000526020600020905b815481529060010190602001808311610ba957829003601f168201915b50505050508152602001600182018054610bdf9061579b565b80601f0160208091040260200160405190810160405280929190818152602001828054610c0b9061579b565b8015610c585780601f10610c2d57610100808354040283529160200191610c58565b820191906000526020600020905b815481529060010190602001808311610c3b57829003601f168201915b50505050508152602001600282018054610c719061579b565b80601f0160208091040260200160405190810160405280929190818152602001828054610c9d9061579b565b8015610cea5780601f10610cbf57610100808354040283529160200191610cea565b820191906000526020600020905b815481529060010190602001808311610ccd57829003601f168201915b50505050508152602001600382018054610d039061579b565b80601f0160208091040260200160405190810160405280929190818152602001828054610d2f9061579b565b8015610d7c5780601f10610d5157610100808354040283529160200191610d7c565b820191906000526020600020905b815481529060010190602001808311610d5f57829003601f168201915b50505050508152602001600482018054610d959061579b565b80601f0160208091040260200160405190810160405280929190818152602001828054610dc19061579b565b8015610e0e5780601f10610de357610100808354040283529160200191610e0e565b820191906000526020600020905b815481529060010190602001808311610df157829003601f168201915b505050918352505060058201546020820152600682015460ff1615156040820152600782018054606090920191610e449061579b565b80601f0160208091040260200160405190810160405280929190818152602001828054610e709061579b565b8015610ebd5780601f10610e9257610100808354040283529160200191610ebd565b820191906000526020600020905b815481529060010190602001808311610ea057829003601f168201915b50505050508152602001600882018054610ed69061579b565b80601f0160208091040260200160405190810160405280929190818152602001828054610f029061579b565b8015610f4f5780601f10610f2457610100808354040283529160200191610f4f565b820191906000526020600020905b815481529060010190602001808311610f3257829003601f168201915b50505050508152505081526020019060010190610b19565b50505050915050919050565b600033610f7f81614295565b33600090815260226020526040902080546110249190610f9e9061579b565b80601f0160208091040260200160405190810160405280929190818152602001828054610fca9061579b565b80156110175780601f10610fec57610100808354040283529160200191611017565b820191906000526020600020905b815481529060010190602001808311610ffa57829003601f168201915b50505050508686866123ba565b95945050505050565b33600090815260226020526040812080546110479061579b565b90506000036110565750600090565b50600190565b600060603361106a81614295565b336000908152602260205260409020805461110f91906110899061579b565b80601f01602080910402602001604051908101604052809291908181526020018280546110b59061579b565b80156111025780601f106110d757610100808354040283529160200191611102565b820191906000526020600020905b8154815290600101906020018083116110e557829003601f168201915b505050505087878761350c565b9250925050935093915050565b805160208183018101805182825292820191909301209152805481906111419061579b565b80601f016020809104026020016040519081016040528092919081815260200182805461116d9061579b565b80156111ba5780601f1061118f576101008083540402835291602001916111ba565b820191906000526020600020905b81548152906001019060200180831161119d57829003601f168201915b5050505050908060010154908060020154908060030154905084565b60006111e06142c2565b8351602080860151600081815260399092526040909120600101546001600160a01b038581169116146112445760405162461bcd60e51b815260206004820152600c60248201526b24b73b30b634b2102ab9b2b960a11b6044820152606401610ad2565b84604051602001611255919061577f565b60408051601f198184030181528282528051602091820120600085815260398352929092209192611287929101615858565b60405160208183030381529060405280519060200120146112d35760405162461bcd60e51b8152600401610ad2906020808252600490820152633ab9b2b960e11b604082015260600190565b60008281526036602052604090205460ff1661131c5760405162461bcd60e51b81526020600482015260086024820152671b9bdd0b5c9bdbdd60c21b6044820152606401610ad2565b60235460408051606081018252848152602081018490526001600160a01b0380881682840181905292519293600093911691611361918e918e918e9190602401615887565b60408051601f198184030181529181526020820180516001600160e01b03166308a3cff560e11b17905251611396919061577f565b6000604051808303816000865af19150503d80600081146113d3576040519150601f19603f3d011682016040523d82523d6000602084013e6113d8565b606091505b50509050806114195760405162461bcd60e51b815260206004820152600d60248201526c34b73b30b634b216b83937b7b360991b6044820152606401610ad2565b6000838152603760209081526040918290208054600160ff19909116811790915582516001600160a01b038a1681529182018690528183015290517fdcea7e4556f6d2711836f8fc414e89488a9cf0ed8189cc1cbc5f0461ded8935b9181900360600190a160019450505050506114906001600055565b9695505050505050565b6000816114a681614295565b6001600160a01b0383166000908152602260205260408120805461149091906114ce9061579b565b80601f01602080910402602001604051908101604052809291908181526020018280546114fa9061579b565b80156115475780601f1061151c57610100808354040283529160200191611547565b820191906000526020600020905b81548152906001019060200180831161152a57829003601f168201915b50505050508787612448565b60008181805b825181101561164957603060f81b838281518110611579576115796157cf565b01602001516001600160f81b031916108015906115ba5750603960f81b8382815181106115a8576115a86157cf565b01602001516001600160f81b03191611155b6115fa5760405162461bcd60e51b815260206004820152601160248201527024b73b30b634b21031b430b930b1ba32b960791b6044820152606401610ad2565b603083828151811061160e5761160e6157cf565b0160200151611620919060f81c615921565b61162b83600a615934565b611635919061594b565b9150806116418161595e565b915050611559565b509392505050565b600060603361165f81614295565b83604051602001611670919061577f565b60405160208183030381529060405280519060200120601f85604051611696919061577f565b908152604051602091819003820181206116b292909101615858565b6040516020818303038152906040528051906020012003611877576000601f856040516116df919061577f565b9081526040519081900360200190206001015460ff16600381111561170657611706615368565b0361173457600160405180604001604052806005815260200164426173696360d81b8152509250925061189b565b6001601f85604051611746919061577f565b9081526040519081900360200190206001015460ff16600381111561176d5761176d615368565b0361179d5760016040518060400160405280600781526020016629ba30b93a32b960c91b8152509250925061189b565b6002601f856040516117af919061577f565b9081526040519081900360200190206001015460ff1660038111156117d6576117d6615368565b0361180657600160405180604001604052806007815260200166416476616e636560c81b8152509250925061189b565b6003601f85604051611818919061577f565b9081526040519081900360200190206001015460ff16600381111561183f5761183f615368565b036118725760016040518060400160405280600a815260200169456e746572707269736560b01b8152509250925061189b565b61189b565b6000604051806040016040528060048152602001634e6f6e6560e01b815250925092505b50915091565b6000816040516020016118b4919061577f565b60405160208183030381529060405280519060200120601f836040516118da919061577f565b908152604051602091819003820181206118f692909101615858565b604051602081830303815290604052805190602001200361191957506001919050565b506000919050565b60008161192d81614295565b6001600160a01b038316600090815260226020526040812080546119df91906119559061579b565b80601f01602080910402602001604051908101604052809291908181526020018280546119819061579b565b80156119ce5780601f106119a3576101008083540402835291602001916119ce565b820191906000526020600020905b8154815290600101906020018083116119b157829003601f168201915b50505050508c8c8c8c8c8c8c613978565b90508a6040516119ef919061577f565b604051809103902089604051611a05919061577f565b604080519182900382206001600160a01b03881660009081526022602052919091209091611a339190615858565b604051908190038120907f53aa85d8994d821e958a3d8edf3f2c4afd7d14ca011df78b05c74e3ee8d9008b90600090a49a9950505050505050505050565b600081604051602001611a84919061577f565b60405160208183030381529060405280519060200120601f83604051611aaa919061577f565b90815260405160209181900382018120611ac692909101615858565b6040516020818303038152906040528051906020012014611af95760405162461bcd60e51b8152600401610ad290615977565b42601f83604051611b0a919061577f565b9081526020016040518091039020600401541015611b3a5760405162461bcd60e51b8152600401610ad2906159ad565b82602083604051611b4b919061577f565b9081526020016040518091039020600201541015611ba15760405162461bcd60e51b81526020600482015260136024820152724e6f2073706163657320617661696c61626c6560681b6044820152606401610ad2565b5060015b92915050565b60405164426173696360d81b60208201526000906025016040516020818303038152906040528051906020012083604051602001611be991906159d9565b6040516020818303038152906040528051906020012003611c485760405162461bcd60e51b81526020600482015260196024820152782130b9b4b190383630b71034b9903090333932b290383630b760391b6044820152606401610ad2565b81604051602001611c59919061577f565b60405160208183030381529060405280519060200120602083604051611c7f919061577f565b90815260405160209181900382018120611c9b92909101615858565b60405160208183030381529060405280519060200120148015611d3f5750601f82604051611cc9919061577f565b90815260405160209181900382018120611ce592909101615858565b60405160208183030381529060405280519060200120602083604051611d0b919061577f565b90815260405160209181900382018120611d2792909101615858565b60405160208183030381529060405280519060200120145b611d7f5760405162461bcd60e51b8152602060048201526011602482015270155cd95c881a5cc81b9bdd081d985b1a59607a1b6044820152606401610ad2565b600080611d8c858561431b565b9150915080602085604051611da1919061577f565b9081526020016040518091039020600101541115611e395760405162461bcd60e51b815260206004820152604960248201527f54686973207061636b616765206973206e6f7420656e6f75676820746f20686f60448201527f6c6420796f75722063757272656e7420757365642073706163652e20427579206064820152683732bc3a10383630b760b91b608482015260a401610ad2565b81601f85604051611e4a919061577f565b908152602001604051809103902060010160006101000a81548160ff02191690836003811115611e7c57611e7c615368565b021790555080601f85604051611e92919061577f565b90815260200160405180910390206002018190555042601f85604051611eb8919061577f565b90815260405190819003602001902060030155611ed76102584261594b565b601f85604051611ee7919061577f565b908152602001604051809103902060040181905550602084604051611f0c919061577f565b90815260200160405180910390206001015481611f299190615921565b602085604051611f39919061577f565b908152602001604051809103902060020181905550610258602085604051611f61919061577f565b9081526020016040518091039020600301819055507f41a95a66497b7f55ba70a81c578a788613ca86649ed530717ff8ae4749be42368482601f87604051611fa9919061577f565b90815260405190819003602001812060030154611fc7939291615a08565b60405180910390a1506001949350505050565b611fe26142c2565b60008351116120255760405162461bcd60e51b815260206004820152600f60248201526e111a59081a5cc81c995c5d5a5c9959608a1b6044820152606401610ad2565b600061203085611553565b9050600061203d84611553565b9050600061204b83876143d5565b6000818152603660209081526040808320805460ff19166001179055805180820182528a81526001600160a01b038916818401819052845260229092529091208054929350909161209b9061579b565b1590506120dc5760405162461bcd60e51b815260206004820152600f60248201526e11125108185b1c9958591e481cd95d608a1b6044820152606401610ad2565b80603882600001516040516120f1919061577f565b9081526040519081900360200190208151819061210e9082615a91565b5060209190910151600190910180546001600160a01b0319166001600160a01b039092169190911790558051604051603b916121499161577f565b9081526040805160209281900383019020805460018101825560009182528382200180546001600160a01b0319166001600160a01b038a8116919091179091558484015116815260229092529020815182919081906121a89082615a91565b5060209190910151600191820180546001600160a01b0319166001600160a01b039092169190911790558151604051603a916121e39161577f565b9081526040805160209281900383019020805460ff1916931515939093179092556000858152603990915220815182919081906122209082615a91565b5060209190910151600190910180546001600160a01b0319166001600160a01b039092169190911790556040517f39eeade2b5592f3db927120b5ed58507e9d8de40aec885f9a87d2c968d890d4c9060149061227d908a9061577f565b9081526040519081900360200181209190915561229b90889061577f565b604080519182900382206001600160a01b038816835260208301869052917fc576f17d8033f236a9579a91ac54a8639edb2b3919c8c4b564854f9789657a72910160405180910390a2866040516122f2919061577f565b60405190819003812060018252907f3894ac881251aad7786695b4486eb386dfebc5842372130d68a7021a70bce84e9060200160405180910390a26001600160a01b038516600090815260226020526040812080546123509061579b565b90501161235f5761235f615b4a565b5050505061236d6001600055565b50505050565b8151602081840181018051603b82529282019185019190912091905280548290811061239e57600080fd5b6000918252602090912001546001600160a01b03169150829050565b60006123c8858585856146b2565b61241f5760405162461bcd60e51b815260206004820152602260248201527f676574426174636846696c65434944732076616c69646174696f6e206661696c604482015261195960f21b6064820152608401610ad2565b601b8260405161242f919061577f565b9081526020016040518091039020549050949350505050565b60006124558484846147b3565b6124a15760405162461bcd60e51b815260206004820152601d60248201527f43616e6e6f742076657269667920746865207368617265642066696c650000006044820152606401610ad2565b6000601d846040516124b3919061577f565b9081526020016040518091039020836040516124cf919061577f565b90815260405190819003602001812060068101805460ff1916600117905591506124fa90859061577f565b60405190819003812060018252907fff7c592f28a610e7695195a3f735a3d59ae4f1dbc1f7c22ca626586ff0eec5d69060200160405180910390a261253f8484612e75565b506001949350505050565b60008160405160200161255d919061577f565b60405160208183030381529060405280519060200120601f83604051612583919061577f565b9081526040516020918190038201812061259f92909101615858565b60405160208183030381529060405280519060200120146125d25760405162461bcd60e51b8152600401610ad290615977565b42601f836040516125e3919061577f565b90815260200160405180910390206004015410156126135760405162461bcd60e51b8152600401610ad2906159ad565b6000602083604051612625919061577f565b9081526020016040518091039020600201541061264457506000919050565b602082604051612654919061577f565b9081526020016040518091039020600201549050919050565b6000806126786142c2565b603a83604051612688919061577f565b9081526040519081900360200190205460ff16156126ab575060019050336126b2565b5060009050335b6126bc6001600055565b915091565b6000816126cd81614295565b6001600160a01b038316600090815260226020526040902080546127799188916126f69061579b565b80601f01602080910402602001604051908101604052809291908181526020018280546127229061579b565b801561276f5780601f106127445761010080835404028352916020019161276f565b820191906000526020600020905b81548152906001019060200180831161275257829003601f168201915b5050505050611a71565b506001600160a01b0383166000908152602260205260408120805461282c91906127a29061579b565b80601f01602080910402602001604051908101604052809291908181526020018280546127ce9061579b565b801561281b5780601f106127f05761010080835404028352916020019161281b565b820191906000526020600020905b8154815290600101906020018083116127fe57829003601f168201915b50505050508c8c8c8c8c8c8c613f0b565b6001600160a01b0385166000908152602260205260409081902090519192508b9160299161285991615858565b90815260200160405180910390206000828254612876919061594b565b90915550506001600160a01b0384166000908152602260205260409081902090518891602a916128a69190615858565b908152602001604051809103902060008282546128c3919061594b565b90915550506001600160a01b038416600090815260226020526040902080546129759189916128f19061579b565b80601f016020809104026020016040519081016040528092919081815260200182805461291d9061579b565b801561296a5780601f1061293f5761010080835404028352916020019161296a565b820191906000526020600020905b81548152906001019060200180831161294d57829003601f168201915b505050505086614874565b508a604051612984919061577f565b604080519182900382206001600160a01b038716600090815260226020529190912090916129b29190615858565b6040519081900381208315158252907f86a6a7180c4940b2e891f8d56f4d498b4f2ec49f60da97d9867b0c62faed5c2c9060200160405180910390a39a9950505050505050505050565b6000601383604051612a0e919061577f565b908152602001604051809103902082604051612a2a919061577f565b9081526040519081900360200190205460ff16612a835760405162461bcd60e51b8152602060048201526017602482015276086c2dcdcdee840eccae4d2ccf240e8d0ca40c4c2e8c6d604b1b6044820152606401610ad2565b6000601083604051612a95919061577f565b90815260405190819003602001812060048101805460ff191660011790559150612ac090859061577f565b60405190819003812060018252907f03597dc9f270e6a92ae04f0d2465d7df0ee3de0c944d5ab75be4403357d649499060200160405180910390a2612b058484613888565b5060019392505050565b8051602081830181018051601f82529282019190930120915280548190612b359061579b565b80601f0160208091040260200160405190810160405280929190818152602001828054612b619061579b565b8015612bae5780601f10612b8357610100808354040283529160200191612bae565b820191906000526020600020905b815481529060010190602001808311612b9157829003601f168201915b50505050600183015460028401546003850154600490950154939460ff9092169390925085565b612bdd61496c565b33612be781614295565b33600090815260226020526040908190209051601d91612c0691615858565b908152602001604051809103902083604051612c22919061577f565b9081526020016040518091039020600101604051612c409190615858565b604080519182900382203360009081526022602052919091209091612c659190615858565b604051809103902014612cae5760405162461bcd60e51b815260206004820152601160248201527015985b1a59185d1a5bdb8819985a5b1959607a1b6044820152606401610ad2565b6040805180820180835233600090815260226020529283208291601d91612cd491615858565b908152602001604051809103902086604051612cf0919061577f565b90815260200160405180910390206008018054612d0c9061579b565b80601f0160208091040260200160405190810160405280929190818152602001828054612d389061579b565b8015612d855780601f10612d5a57610100808354040283529160200191612d85565b820191906000526020600020905b815481529060010190602001808311612d6857829003601f168201915b5050509183525050336000908152602260209081526040918290209151920191601d91612db191615858565b908152602001604051809103902086604051612dcd919061577f565b90815260200160405180910390206007018054612de99061579b565b80601f0160208091040260200160405190810160405280929190818152602001828054612e159061579b565b8015612e625780601f10612e3757610100808354040283529160200191612e62565b820191906000526020600020905b815481529060010190602001808311612e4557829003601f168201915b5050509190925250909695505050505050565b6000601e83604051612e87919061577f565b9081526020016040518091039020905060005b815481101561236d5782604051602001612eb4919061577f565b60405160208183030381529060405280519060200120828281548110612edc57612edc6157cf565b9060005260206000209060090201600201604051602001612efd9190615858565b6040516020818303038152906040528051906020012003612f53576001828281548110612f2c57612f2c6157cf565b60009182526020909120600990910201600601805460ff191691151591909117905561236d565b80612f5d8161595e565b915050612e9a565b602b6020526000908152604090208054612f7e9061579b565b80601f0160208091040260200160405190810160405280929190818152602001828054612faa9061579b565b8015612ff75780601f10612fcc57610100808354040283529160200191612ff7565b820191906000526020600020905b815481529060010190602001808311612fda57829003601f168201915b505050505081565b60008161300b81614295565b600061149086866129fc565b6000602182604051613029919061577f565b9081526040519081900360200190205460ff1692915050565b60603361304e81614295565b33600090815260226020526040812080546130f0919061306d9061579b565b80601f01602080910402602001604051908101604052809291908181526020018280546130999061579b565b80156130e65780601f106130bb576101008083540402835291602001916130e6565b820191906000526020600020905b8154815290600101906020018083116130c957829003601f168201915b50505050506105d2565b9250505090565b6060603b82604051613109919061577f565b908152604080519182900360209081018320805480830285018301909352828452919083018282801561316557602002820191906000526020600020905b81546001600160a01b03168152600190910190602001808311613147575b50505050509050919050565b6000803361317e81614295565b3360009081526022602052604090819020905160299161319d91615858565b9081526040805191829003602090810183205433600090815260229092529190209091602a916131cc91615858565b90815260200160405180910390205492509250509091565b6000816040516020016131f7919061577f565b60405160208183030381529060405280519060200120601f8360405161321d919061577f565b9081526040516020918190038201812061323992909101615858565b604051602081830303815290604052805190602001201461329c5760405162461bcd60e51b815260206004820152601e60248201527f4e6f207061636b6167652063757272656e746c792061637469766174656400006044820152606401610ad2565b42601f836040516132ad919061577f565b908152602001604051809103902060040154101561191957506001919050565b6132d561496c565b336132df81614295565b60008351116133255760405162461bcd60e51b815260206004820152601260248201527110985d18da12185cda081c995c5d5a5c995960721b6044820152606401610ad2565b3360009081526022602052604090819020905160139161334491615858565b908152602001604051809103902083604051613360919061577f565b9081526040519081900360200190205460ff166133b65760405162461bcd60e51b815260206004820152601460248201527310985d18da08191bd95cc81b9bdd08195e1a5cdd60621b6044820152606401610ad2565b6011836040516133c6919061577f565b90815260200160405180910390206040518060400160405290816000820180546133ef9061579b565b80601f016020809104026020016040519081016040528092919081815260200182805461341b9061579b565b80156134685780601f1061343d57610100808354040283529160200191613468565b820191906000526020600020905b81548152906001019060200180831161344b57829003601f168201915b505050505081526020016001820180546134819061579b565b80601f01602080910402602001604051908101604052809291908181526020018280546134ad9061579b565b80156134fa5780601f106134cf576101008083540402835291602001916134fa565b820191906000526020600020905b8154815290600101906020018083116134dd57829003601f168201915b50505050508152505091505b50919050565b6000606061351b8686856147b3565b6135725760405162461bcd60e51b815260206004820152602260248201527f676574536861726546696c65434944732056616c69646174696f6e206661696c604482015261195960f21b6064820152608401610ad2565b600f601d86604051613584919061577f565b9081526020016040518091039020846040516135a0919061577f565b90815260200160405180910390206003016040516135be9190615858565b908152602001604051809103902060010154601d866040516135e0919061577f565b9081526020016040518091039020846040516135fc919061577f565b90815260200160405180910390206004018080546136199061579b565b80601f01602080910402602001604051908101604052809291908181526020018280546136459061579b565b80156136925780601f1061366757610100808354040283529160200191613692565b820191906000526020600020905b81548152906001019060200180831161367557829003601f168201915b505050505090509150915094509492505050565b6060336136b281614295565b33600090815260226020526040908190209051601a916136d191615858565b9081526020016040518091039020805480602002602001604051908101604052809291908181526020016000905b8282101561387e57838290600052602060002090600502016040518060a00160405290816000820180546137329061579b565b80601f016020809104026020016040519081016040528092919081815260200182805461375e9061579b565b80156137ab5780601f10613780576101008083540402835291602001916137ab565b820191906000526020600020905b81548152906001019060200180831161378e57829003601f168201915b505050505081526020016001820180546137c49061579b565b80601f01602080910402602001604051908101604052809291908181526020018280546137f09061579b565b801561383d5780601f106138125761010080835404028352916020019161383d565b820191906000526020600020905b81548152906001019060200180831161382057829003601f168201915b505050918352505060028201546020808301919091526003830154604083015260049092015460ff16151560609091015290825260019290920191016136ff565b5050505091505090565b6000601a8360405161389a919061577f565b9081526020016040518091039020905060005b815481101561236d57826040516020016138c7919061577f565b604051602081830303815290604052805190602001208282815481106138ef576138ef6157cf565b90600052602060002090600502016001016040516020016139109190615858565b604051602081830303815290604052805190602001200361396657600182828154811061393f5761393f6157cf565b60009182526020909120600590910201600401805460ff191691151591909117905561236d565b806139708161595e565b9150506138ad565b60006139826142c2565b85805190602001208780519060200120141580156139a757506139a78988878b6146b2565b6139f35760405162461bcd60e51b815260206004820181905260248201527f7361766564536861726546696c652056616c69646174696f6e206661696c65646044820152606401610ad2565b6000601c89604051613a05919061577f565b90815260405160209181900382019020805460018101825560008281529290922090925001613a348882615a91565b506000805b8254811015613a91578880519060200120838281548110613a5c57613a5c6157cf565b90600052602060002001604051613a739190615858565b604051809103902003613a895760019150613a91565b600101613a39565b5080613adf5760405162461bcd60e51b815260206004820152601e60248201527f546869732066696c65206973206e6f742073686172656420746f20796f7500006044820152606401610ad2565b60006040518061012001604052808b81526020018a81526020018981526020018c8152602001888152602001600f8d604051613b1b919061577f565b908152602001604051809103902060010154815260200160001515815260200186815260200187815250905080601d8a604051613b58919061577f565b90815260200160405180910390208c604051613b74919061577f565b90815260405190819003602001902081518190613b919082615a91565b5060208201516001820190613ba69082615a91565b5060408201516002820190613bbb9082615a91565b5060608201516003820190613bd09082615a91565b5060808201516004820190613be59082615a91565b5060a0820151600582015560c082015160068201805460ff191691151591909117905560e08201516007820190613c1c9082615a91565b506101008201516008820190613c329082615a91565b50905050601e89604051613c46919061577f565b908152604051602091819003820190208054600181018255600091825291902082518392600902909101908190613c7d9082615a91565b5060208201516001820190613c929082615a91565b5060408201516002820190613ca79082615a91565b5060608201516003820190613cbc9082615a91565b5060808201516004820190613cd19082615a91565b5060a0820151600582015560c082015160068201805460ff191691151591909117905560e08201516007820190613d089082615a91565b506101008201516008820190613d1e9082615a91565b50505060019350505050613d326001600055565b98975050505050505050565b6040805160a0810190915282815260009060208101828152602001630bebc200815260200142815260200161025842613d77919061594b565b815250601f84604051613d8a919061577f565b90815260405190819003602001902081518190613da79082615a91565b50602082015160018083018054909160ff1990911690836003811115613dcf57613dcf615368565b0217905550604082015181600201556060820151816003015560808201518160040155905050604051806080016040528084815260200160008152602001630bebc2008152602001610258815250602084604051613e2d919061577f565b90815260405190819003602001902081518190613e4a9082615a91565b506020820151816001015560408201518160020155606082015181600301559050506001602184604051613e7e919061577f565b908152602001604051809103902060006101000a81548160ff0219169083151502179055507f8a5379c47d10441c1b359b92c8af27110d352a270c7c4fc9ed50b863e66963f88284630bebc200601f87604051613edb919061577f565b90815260405190819003602001812060030154613efa94939291615b60565b60405180910390a150600192915050565b6000600160138a604051613f1f919061577f565b908152602001604051809103902089604051613f3b919061577f565b908152604051908190036020019020805491151560ff1990921691909117905560005b87811015614094576000878783818110613f7a57613f7a6157cf565b9050602002810190613f8c9190615b97565b613f9590615bad565b9050600160158c604051613fa9919061577f565b90815260405190819003602001812083519091613fc6919061577f565b90815260405160209181900382018120805460ff19169315159390931790925582015182519091601b91613ff99161577f565b908152604051908190036020018120919091558151600091600f9161401d9161577f565b9081526040519081900360200190208251909150819061403d9082615a91565b506020820151600182015581516040518291600f9161405c919061577f565b908152604051908190036020019020806140768382615c18565b506001918201549101555061408d90508160010190565b9050613f5e565b5060006010896040516140a7919061577f565b9081526040519081900360200190209050806140c38b82615a91565b50600181016140d28a82615a91565b50600281018890556003810185905560048101805460ff19169055604051600090601190614101908c9061577f565b9081526040519081900360200190209050600181016141208682615a91565b508061412c8582615a91565b508060118b60405161413e919061577f565b908152604051908190036020019020806141588382615c18565b5060018181019061416b90840182615c18565b50905050601a8b60405161417f919061577f565b9081526040516020918190038201902080546001810182556000918252919020839160050201806141b08382615c18565b506001818101906141c390840182615c18565b5060028281015490820155600380830154908201556004918201549101805460ff191660ff9092161515919091179055604051601390614204908d9061577f565b90815260200160405180910390208a604051614220919061577f565b9081526040519081900360200190205460ff1615156001146142845760405162461bcd60e51b815260206004820152601e60248201527f426174636820726f6f7420766572696669636174696f6e206661696c656400006044820152606401610ad2565b5060019a9950505050505050505050565b6001600160a01b03808216600081815260226020526040902060010154909116146142bf57600080fd5b50565b6002600054036143145760405162461bcd60e51b815260206004820152601f60248201527f5265656e7472616e637947756172643a207265656e7472616e742063616c6c006044820152606401610ad2565b6002600055565b600080600184600381111561433257614332615368565b03614378576000602184604051614349919061577f565b908152604051908190036020019020805491151560ff1990921691909117905550600190506312c000006143ce565b600284600381111561438c5761438c615368565b036143ce5760006021846040516143a3919061577f565b908152604051908190036020019020805491151560ff1990921691909117905550600290506318b5e1005b9250929050565b6024546000906143f090600160a01b900460ff166002615dd0565b6025541061442c5760405162461bcd60e51b81526020600482015260096024820152681d1c99594b599d5b1b60ba1b6044820152606401610ad2565b6000614436614986565b61443e614986565b6025548660005b60245460ff600160a01b909104811690821610156146205760008061446b600286615df5565b6000036144ea57839150602c8360ff16600a811061448b5761448b6157cf565b01549050602c8360ff16600a81106144a5576144a56157cf565b0154878460ff16600a81106144bc576144bc6157cf565b602002015260008660ff8516600a81106144d8576144d86157cf565b60ff9092166020929092020152614540565b505060ff811660008181526026602052604090205490839082908890600a8110614516576145166157cf565b602002015260018660ff8516600a8110614532576145326157cf565b60ff90921660209290920201525b83602660008560ff1660ff168152602001908152602001600020819055506000602460009054906101000a90046001600160a01b03166001600160a01b031663d622e5a46040518060400160405280868152602001858152508e6040518363ffffffff1660e01b81526004016145b7929190615e09565b602060405180830381865afa1580156145d4573d6000803e3d6000fd5b505050506040513d601f19601f820116820180604052508101906145f89190615e24565b9450849050614608600287615e3d565b9550505050808061461890615e51565b915050614445565b50809450600160256000828254614637919061594b565b909155505060008881526027602052604090819020805460ff191660011790555161466390889061577f565b60405180910390207ff7b64783eeabd9c9ba0f432881b754c4dae2c8811785729858cc9209b22ad25686868660405161469e93929190615e70565b60405180910390a250929695505050505050565b60008380519060200120858051906020012014801561471157506013856040516146dc919061577f565b9081526020016040518091039020836040516146f8919061577f565b9081526040519081900360200190205460ff1615156001145b801561475d5750601585604051614728919061577f565b908152602001604051809103902082604051614744919061577f565b9081526040519081900360200190205460ff1615156001145b61253f5760405162461bcd60e51b815260206004820152602160248201527f766572696679426174636846696c652076616c69646174696f6e206661696c656044820152601960fa1b6064820152608401610ad2565b60008280519060200120848051906020012014801561482957508180519060200120601d846040516147e5919061577f565b908152602001604051809103902083604051614801919061577f565b908152602001604051809103902060030160405161481f9190615858565b6040518091039020145b612b055760405162461bcd60e51b815260206004820152601c60248201527b15985b1a59185d1a5bdb8814da185c9948119a5b194819985a5b195960221b6044820152606401610ad2565b600083602084604051614887919061577f565b908152602001604051809103902060010160008282546148a7919061594b565b92505081905550836020846040516148bf919061577f565b908152602001604051809103902060020160008282546148df9190615921565b925050819055507fc91937af2ba7c2f1edb9254b3b513b16bbddf5ea0569c406c1a4be9c6c087f528284602086604051614919919061577f565b90815260200160405180910390206001015460208760405161493b919061577f565b9081526040519081900360200181206002015461495a94939291615b60565b60405180910390a15060019392505050565b604051806040016040528060608152602001606081525090565b604051806101400160405280600a906020820280368337509192915050565b634e487b7160e01b600052604160045260246000fd5b604080519081016001600160401b03811182821017156149dd576149dd6149a5565b60405290565b600082601f8301126149f457600080fd5b81356001600160401b0380821115614a0e57614a0e6149a5565b604051601f8301601f19908116603f01168101908282118183101715614a3657614a366149a5565b81604052838152866020858801011115614a4f57600080fd5b836020870160208301376000602085830101528094505050505092915050565b600060208284031215614a8157600080fd5b81356001600160401b03811115614a9757600080fd5b614aa3848285016149e3565b949350505050565b60005b83811015614ac6578181015183820152602001614aae565b50506000910152565b60008151808452614ae7816020860160208601614aab565b601f01601f19169290920160200192915050565b60006020808301818452808551808352604092508286019150828160051b87010184880160005b83811015614c1c57603f1989840301855281516101208151818652614b4982870182614acf565b915050888201518582038a870152614b618282614acf565b9150508782015185820389870152614b798282614acf565b91505060608083015186830382880152614b938382614acf565b9250505060808083015186830382880152614bae8382614acf565b9250505060a080830151818701525060c080830151614bd08288018215159052565b505060e08083015186830382880152614be98382614acf565b925050506101008083015192508582038187015250614c088183614acf565b968901969450505090860190600101614b22565b509098975050505050505050565b600080600060608486031215614c3f57600080fd5b83356001600160401b0380821115614c5657600080fd5b614c62878388016149e3565b94506020860135915080821115614c7857600080fd5b614c84878388016149e3565b93506040860135915080821115614c9a57600080fd5b50614ca7868287016149e3565b9150509250925092565b828152604060208201526000614aa36040830184614acf565b608081526000614cdd6080830187614acf565b6020830195909552506040810192909252606090910152919050565b600082601f830112614d0a57600080fd5b614d126149bb565b806040840185811115614d2457600080fd5b845b81811015614d3e578035845260209384019301614d26565b509095945050505050565b80356001600160a01b0381168114614d6057600080fd5b919050565b6000806000806000806101808789031215614d7f57600080fd5b614d898888614cf9565b9550604088605f890112614d9c57600080fd5b614da46149bb565b8060c08a018b811115614db657600080fd5b838b015b81811015614ddb57614dcc8d82614cf9565b84526020909301928401614dba565b50819850614de98c82614cf9565b975050505050614dfd886101008901614cf9565b92506101408701356001600160401b03811115614e1957600080fd5b614e2589828a016149e3565b925050614e356101608801614d49565b90509295509295509295565b600080600060608486031215614e5657600080fd5b83356001600160401b0380821115614e6d57600080fd5b614e79878388016149e3565b94506020860135915080821115614e8f57600080fd5b50614e9c868287016149e3565b925050614eab60408501614d49565b90509250925092565b8215158152604060208201526000614aa36040830184614acf565b600080600080600080600080610100898b031215614eec57600080fd5b88356001600160401b0380821115614f0357600080fd5b614f0f8c838d016149e3565b995060208b0135915080821115614f2557600080fd5b614f318c838d016149e3565b985060408b0135915080821115614f4757600080fd5b614f538c838d016149e3565b975060608b0135915080821115614f6957600080fd5b614f758c838d016149e3565b965060808b0135915080821115614f8b57600080fd5b614f978c838d016149e3565b955060a08b0135915080821115614fad57600080fd5b614fb98c838d016149e3565b945060c08b0135915080821115614fcf57600080fd5b50614fdc8b828c016149e3565b925050614feb60e08a01614d49565b90509295985092959890939650565b6000806040838503121561500d57600080fd5b8235915060208301356001600160401b0381111561502a57600080fd5b615036858286016149e3565b9150509250929050565b6000806040838503121561505357600080fd5b82356004811061506257600080fd5b915060208301356001600160401b0381111561502a57600080fd5b6000806000806080858703121561509357600080fd5b84356001600160401b03808211156150aa57600080fd5b6150b6888389016149e3565b955060208701359150808211156150cc57600080fd5b6150d8888389016149e3565b945060408701359150808211156150ee57600080fd5b506150fb878288016149e3565b92505061510a60608601614d49565b905092959194509250565b6000806040838503121561512857600080fd5b82356001600160401b0381111561513e57600080fd5b61514a858286016149e3565b95602094909401359450505050565b6000806000806080858703121561516f57600080fd5b84356001600160401b038082111561518657600080fd5b615192888389016149e3565b955060208701359150808211156151a857600080fd5b6151b4888389016149e3565b945060408701359150808211156151ca57600080fd5b6151d6888389016149e3565b935060608701359150808211156151ec57600080fd5b506151f9878288016149e3565b91505092959194509250565b60008083601f84011261521757600080fd5b5081356001600160401b0381111561522e57600080fd5b6020830191508360208260051b85010111156143ce57600080fd5b60008060008060008060008060e0898b03121561526557600080fd5b88356001600160401b038082111561527c57600080fd5b6152888c838d016149e3565b995060208b0135985060408b01359150808211156152a557600080fd5b6152b18c838d01615205565b909850965060608b0135955060808b01359150808211156152d157600080fd5b6152dd8c838d016149e3565b945060a08b01359150808211156152f357600080fd5b506153008b828c016149e3565b925050614feb60c08a01614d49565b6000806040838503121561532257600080fd5b82356001600160401b038082111561533957600080fd5b615345868387016149e3565b9350602085013591508082111561535b57600080fd5b50615036858286016149e3565b634e487b7160e01b600052602160045260246000fd5b60a08152600061539160a0830188614acf565b9050600486106153b157634e487b7160e01b600052602160045260246000fd5b8560208301528460408301528360608301528260808301529695505050505050565b6020815260008251604060208401526153ef6060840182614acf565b90506020840151601f198483030160408501526110248282614acf565b60006020828403121561541e57600080fd5b61542782614d49565b9392505050565b6020815260006154276020830184614acf565b6020808252825182820181905260009190848201906040850190845b818110156154825783516001600160a01b03168352928401929184019160010161545d565b50909695505050505050565b60006020808301818452808551808352604092508286019150828160051b87010184880160005b83811015614c1c57603f19898403018552815160a081518186526154db82870182614acf565b915050888201518582038a8701526154f38282614acf565b838a0151878b01526060808501519088015260809384015115159390960192909252505093860193908601906001016154b5565b600080600080600080600080610100898b03121561554457600080fd5b88356001600160401b038082111561555b57600080fd5b6155678c838d016149e3565b995060208b013591508082111561557d57600080fd5b6155898c838d016149e3565b985060408b013591508082111561559f57600080fd5b6155ab8c838d016149e3565b975060608b01359150808211156155c157600080fd5b6155cd8c838d016149e3565b965060808b01359150808211156155e357600080fd5b6155ef8c838d016149e3565b955060a08b013591508082111561560557600080fd5b6156118c838d016149e3565b945060c08b013591508082111561562757600080fd5b6156338c838d016149e3565b935060e08b013591508082111561564957600080fd5b506156568b828c016149e3565b9150509295985092959890939650565b6000806040838503121561567957600080fd5b82356001600160401b0381111561568f57600080fd5b61569b858286016149e3565b9250506156aa60208401614d49565b90509250929050565b60008060008060008060008060e0898b0312156156cf57600080fd5b88356001600160401b03808211156156e657600080fd5b6156f28c838d016149e3565b995060208b013591508082111561570857600080fd5b6157148c838d016149e3565b985060408b0135975060608b013591508082111561573157600080fd5b61573d8c838d01615205565b909750955060808b0135945060a08b013591508082111561575d57600080fd5b6157698c838d016149e3565b935060c08b013591508082111561564957600080fd5b60008251615791818460208701614aab565b9190910192915050565b600181811c908216806157af57607f821691505b60208210810361350657634e487b7160e01b600052602260045260246000fd5b634e487b7160e01b600052603260045260246000fd5b600081546157f28161579b565b6001828116801561580a576001811461581f5761584e565b60ff198416875282151583028701945061584e565b8560005260208060002060005b858110156158455781548a82015290840190820161582c565b50505082870194505b5050505092915050565b600061542782846157e5565b8060005b600281101561236d578151845260209384019390910190600101615868565b61016081016158968287615864565b60408083018660005b60028110156158c6576158b3838351615864565b918301916020919091019060010161589f565b505050506158d760c0830185615864565b61010082018360005b60038110156158ff5781518352602092830192909101906001016158e0565b50505095945050505050565b634e487b7160e01b600052601160045260246000fd5b81810381811115611ba557611ba561590b565b8082028115828204841417611ba557611ba561590b565b80820180821115611ba557611ba561590b565b6000600182016159705761597061590b565b5060010190565b6020808252601c908201527b4e6f207061636b6167652063757272656e6c7920616374697661746560201b604082015260600190565b602080825260129082015271141858dad859d9481a5cc8195e1c1a5c995960721b604082015260600190565b6000600483106159f957634e487b7160e01b600052602160045260246000fd5b5060f89190911b815260010190565b606081526000615a1b6060830186614acf565b60208301949094525060400152919050565b601f821115615a7757600081815260208120601f850160051c81016020861015615a545750805b601f850160051c820191505b81811015615a7357828155600101615a60565b5050505b505050565b600019600383901b1c191660019190911b1790565b81516001600160401b03811115615aaa57615aaa6149a5565b615abe81615ab8845461579b565b84615a2d565b602080601f831160018114615aed5760008415615adb5750858301515b615ae58582615a7c565b865550615a73565b600085815260208120601f198616915b82811015615b1c57888601518255948401946001909101908401615afd565b5085821015615b3a5787850151600019600388901b60f8161c191681555b5050505050600190811b01905550565b634e487b7160e01b600052600160045260246000fd5b6001600160a01b0385168152608060208201819052600090615b8490830186614acf565b6040830194909452506060015292915050565b60008235603e1983360301811261579157600080fd5b600060408236031215615bbf57600080fd5b604080519081016001600160401b038082118383101715615be257615be26149a5565b816040528435915080821115615bf757600080fd5b50615c04368286016149e3565b825250602092830135928101929092525090565b818103615c23575050565b615c2d825461579b565b6001600160401b03811115615c4457615c446149a5565b615c5281615ab8845461579b565b6000601f821160018114615c805760008315615c6e5750848201545b615c788482615a7c565b855550615ce5565b600085815260209020601f19841690600086815260209020845b83811015615cba5782860154825560019586019590910190602001615c9a565b5085831015615cd85781850154600019600388901b60f8161c191681555b50505060018360011b0184555b5050505050565b600181815b80851115615d27578160001904821115615d0d57615d0d61590b565b80851615615d1a57918102915b93841c9390800290615cf1565b509250929050565b600082615d3e57506001611ba5565b81615d4b57506000611ba5565b8160018114615d615760028114615d6b57615d87565b6001915050611ba5565b60ff841115615d7c57615d7c61590b565b50506001821b611ba5565b5060208310610133831016604e8410600b8410161715615daa575081810a611ba5565b615db48383615cec565b8060001904821115615dc857615dc861590b565b029392505050565b600061542760ff841683615d2f565b634e487b7160e01b600052601260045260246000fd5b600082615e0457615e04615ddf565b500690565b60608101615e178285615864565b8260408301529392505050565b600060208284031215615e3657600080fd5b5051919050565b600082615e4c57615e4c615ddf565b500490565b600060ff821660ff8103615e6757615e6761590b565b60010192915050565b8381526102a0810160208083018560005b600a811015615e9e57815183529183019190830190600101615e81565b50505061016083018460005b600a811015615eca57815160ff1683529183019190830190600101615eaa565b5050505094935050505056fea26469706673582212204093c932a521a5e9facb0ea68c2bafda68cfd41e6c094ccdb8953df9543253d864736f6c634300081400335171d273154b2764aa5903210e16bd1899b18648d1358d41887a113227e9acc5850aa72f3d8bc65181e9c29d76f7614e2f939ade9442abac29fc8a0329deeffde9c6f678752dbfc89028bf8b9b1cce608b34b742b75fbae878ec2c6ae803dc1e6eb9a05106eff3031621027680204b2e9326b0e5191bd62f3cd7bf7f6d94d027a9e22c2e1f4531bc4389032bb472b97c25a7298d27ba4fefd75439a1be46f77fa1cbc8691493398c061f547b4882edbb6a38ce1730c8a2605e9d8138d4ad1226350ffb7c45ccf8940c163b192252495b614def57272b6f8d9a53a5b3e44ef8bd986c06cb04d613f57cf7a1da410e0f22c794e1ec1ae125898cfc9662a5e5be59c8acb7af851baf91a82b1ad46b01ac506ce80387170890dea377d21e85202584",
  "linkReferences": {},
  "deployedLinkReferences": {}
}