{
  "_format": "hh-sol-artifact-1",
  "contractName": "FileStorage",
  "sourceName": "contracts/FileStorage.sol",
  "abi": [
    {
      "inputs": [],
      "stateMutability": "nonpayable",
      "type": "constructor"
    },
    {
      "anonymous": false,
      "inputs": [
        {
          "indexed": true,
          "internalType": "string",
          "name": "_did",
          "type": "string"
        },
        {
          "indexed": true,
          "internalType": "string",
          "name": "_batchhash",
          "type": "string"
        },
        {
          "indexed": false,
          "internalType": "bool",
          "name": "isBatchUploaded",
          "type": "bool"
        }
      ],
      "name": "BatchUploaded",
      "type": "event"
    },
    {
      "anonymous": false,
      "inputs": [
        {
          "indexed": true,
          "internalType": "string",
          "name": "_did",
          "type": "string"
        },
        {
          "indexed": false,
          "internalType": "bool",
          "name": "_success",
          "type": "bool"
        }
      ],
      "name": "BatchVerified",
      "type": "event"
    },
    {
      "anonymous": false,
      "inputs": [
        {
          "indexed": true,
          "internalType": "bytes32",
          "name": "chunkroot",
          "type": "bytes32"
        },
        {
          "indexed": false,
          "internalType": "uint256[10]",
          "name": "chunkHashPairings",
          "type": "uint256[10]"
        },
        {
          "indexed": false,
          "internalType": "uint8[10]",
          "name": "chunkPairDirection",
          "type": "uint8[10]"
        }
      ],
      "name": "ChunkCollected",
      "type": "event"
    },
    {
      "anonymous": false,
      "inputs": [
        {
          "indexed": true,
          "internalType": "string",
          "name": "_did",
          "type": "string"
        },
        {
          "indexed": true,
          "internalType": "string",
          "name": "_fileHash",
          "type": "string"
        },
        {
          "indexed": false,
          "internalType": "string",
          "name": "_Cid",
          "type": "string"
        },
        {
          "indexed": false,
          "internalType": "bool",
          "name": "added",
          "type": "bool"
        }
      ],
      "name": "ChunksAdded",
      "type": "event"
    },
    {
      "anonymous": false,
      "inputs": [
        {
          "indexed": true,
          "internalType": "bytes32",
          "name": "batchRoot",
          "type": "bytes32"
        },
        {
          "indexed": false,
          "internalType": "uint256[10]",
          "name": "fileHashPairings",
          "type": "uint256[10]"
        },
        {
          "indexed": false,
          "internalType": "uint8[10]",
          "name": "filePairDirection",
          "type": "uint8[10]"
        }
      ],
      "name": "FileCollected",
      "type": "event"
    },
    {
      "anonymous": false,
      "inputs": [
        {
          "indexed": true,
          "internalType": "string",
          "name": "_ownerDid",
          "type": "string"
        },
        {
          "indexed": true,
          "internalType": "string",
          "name": "_shareDid",
          "type": "string"
        },
        {
          "indexed": true,
          "internalType": "string",
          "name": "_fileHash",
          "type": "string"
        }
      ],
      "name": "FileShared",
      "type": "event"
    },
    {
      "anonymous": false,
      "inputs": [
        {
          "indexed": true,
          "internalType": "string",
          "name": "_did",
          "type": "string"
        },
        {
          "indexed": true,
          "internalType": "string",
          "name": "_fileHash",
          "type": "string"
        },
        {
          "indexed": false,
          "internalType": "bool",
          "name": "isFileUploaded",
          "type": "bool"
        }
      ],
      "name": "FileUploaded",
      "type": "event"
    },
    {
      "anonymous": false,
      "inputs": [
        {
          "indexed": false,
          "internalType": "uint8",
          "name": "version",
          "type": "uint8"
        }
      ],
      "name": "Initialized",
      "type": "event"
    },
    {
      "anonymous": false,
      "inputs": [
        {
          "indexed": true,
          "internalType": "string",
          "name": "_did",
          "type": "string"
        },
        {
          "indexed": false,
          "internalType": "bool",
          "name": "_success",
          "type": "bool"
        }
      ],
      "name": "IsUserAdded",
      "type": "event"
    },
    {
      "anonymous": false,
      "inputs": [
        {
          "indexed": true,
          "internalType": "string",
          "name": "_did",
          "type": "string"
        },
        {
          "indexed": true,
          "internalType": "string",
          "name": "_uid",
          "type": "string"
        },
        {
          "indexed": false,
          "internalType": "string",
          "name": "_status",
          "type": "string"
        }
      ],
      "name": "KYCResponseStored",
      "type": "event"
    },
    {
      "anonymous": false,
      "inputs": [
        {
          "indexed": true,
          "internalType": "string",
          "name": "_did",
          "type": "string"
        },
        {
          "indexed": false,
          "internalType": "bool",
          "name": "_success",
          "type": "bool"
        }
      ],
      "name": "SharedFileVerified",
      "type": "event"
    },
    {
      "anonymous": false,
      "inputs": [
        {
          "indexed": true,
          "internalType": "string",
          "name": "_did",
          "type": "string"
        },
        {
          "indexed": false,
          "internalType": "address",
          "name": "_owner",
          "type": "address"
        },
        {
          "indexed": false,
          "internalType": "uint256",
          "name": "_nullifierHash",
          "type": "uint256"
        }
      ],
      "name": "UserAdded",
      "type": "event"
    },
    {
      "anonymous": false,
      "inputs": [
        {
          "indexed": true,
          "internalType": "string",
          "name": "_did",
          "type": "string"
        },
        {
          "indexed": false,
          "internalType": "uint256",
          "name": "useroot",
          "type": "uint256"
        },
        {
          "indexed": false,
          "internalType": "uint256[10]",
          "name": "userHashPairings",
          "type": "uint256[10]"
        },
        {
          "indexed": false,
          "internalType": "uint8[10]",
          "name": "userPairDirection",
          "type": "uint8[10]"
        }
      ],
      "name": "UserCollected",
      "type": "event"
    },
    {
      "anonymous": false,
      "inputs": [
        {
          "indexed": true,
          "internalType": "string",
          "name": "_userdid",
          "type": "string"
        },
        {
          "indexed": true,
          "internalType": "uint256",
          "name": "totalTokens",
          "type": "uint256"
        }
      ],
      "name": "UserMinted",
      "type": "event"
    },
    {
      "anonymous": false,
      "inputs": [
        {
          "indexed": true,
          "internalType": "string",
          "name": "_userdid",
          "type": "string"
        },
        {
          "indexed": true,
          "internalType": "uint256",
          "name": "balanceToken",
          "type": "uint256"
        }
      ],
      "name": "UserPayed",
      "type": "event"
    },
    {
      "anonymous": false,
      "inputs": [
        {
          "indexed": false,
          "internalType": "string",
          "name": "_did",
          "type": "string"
        },
        {
          "indexed": false,
          "internalType": "address",
          "name": "_owner",
          "type": "address"
        },
        {
          "indexed": false,
          "internalType": "bool",
          "name": "_success",
          "type": "bool"
        }
      ],
      "name": "UserSecretkeySaved",
      "type": "event"
    },
    {
      "anonymous": false,
      "inputs": [
        {
          "indexed": false,
          "internalType": "address",
          "name": "sender",
          "type": "address"
        },
        {
          "indexed": false,
          "internalType": "uint256",
          "name": "nullifierHash",
          "type": "uint256"
        },
        {
          "indexed": false,
          "internalType": "bool",
          "name": "isVerified",
          "type": "bool"
        }
      ],
      "name": "UserVerified",
      "type": "event"
    },
    {
      "inputs": [
        {
          "internalType": "string",
          "name": "_strcommitment",
          "type": "string"
        },
        {
          "internalType": "string",
          "name": "_did",
          "type": "string"
        },
        {
          "internalType": "string",
          "name": "_strnullifierHash",
          "type": "string"
        },
        {
          "internalType": "address",
          "name": "_owner",
          "type": "address"
        }
      ],
      "name": "adduser",
      "outputs": [],
      "stateMutability": "nonpayable",
      "type": "function"
    },
    {
      "inputs": [
        {
          "internalType": "string",
          "name": "",
          "type": "string"
        },
        {
          "internalType": "uint256",
          "name": "",
          "type": "uint256"
        }
      ],
      "name": "adressList",
      "outputs": [
        {
          "internalType": "address",
          "name": "",
          "type": "address"
        }
      ],
      "stateMutability": "view",
      "type": "function"
    },
    {
      "inputs": [
        {
          "internalType": "string",
          "name": "_did",
          "type": "string"
        }
      ],
      "name": "getAdressList",
      "outputs": [
        {
          "internalType": "address[]",
          "name": "_list",
          "type": "address[]"
        }
      ],
      "stateMutability": "view",
      "type": "function"
    },
    {
      "inputs": [],
      "name": "getAllBatches",
      "outputs": [
        {
          "components": [
            {
              "internalType": "string",
              "name": "Ownerdid",
              "type": "string"
            },
            {
              "internalType": "string",
              "name": "BatchHash",
              "type": "string"
            },
            {
              "internalType": "uint256",
              "name": "FilesCount",
              "type": "uint256"
            },
            {
              "internalType": "uint256",
              "name": "BatchSize",
              "type": "uint256"
            },
            {
              "internalType": "bool",
              "name": "Verified",
              "type": "bool"
            }
          ],
          "internalType": "struct FileContract.Batch[]",
          "name": "_list",
          "type": "tuple[]"
        }
      ],
      "stateMutability": "view",
      "type": "function"
    },
    {
      "inputs": [],
      "name": "getAllSharedFiles",
      "outputs": [
        {
          "components": [
            {
              "internalType": "string",
              "name": "ownerDid",
              "type": "string"
            },
            {
              "internalType": "string",
              "name": "sharedDid",
              "type": "string"
            },
            {
              "internalType": "string",
              "name": "batchhash",
              "type": "string"
            },
            {
              "internalType": "string",
              "name": "fileHash",
              "type": "string"
            },
            {
              "internalType": "string",
              "name": "fileName",
              "type": "string"
            },
            {
              "internalType": "uint256",
              "name": "merkleTreeIndex",
              "type": "uint256"
            },
            {
              "internalType": "bool",
              "name": "verified",
              "type": "bool"
            }
          ],
          "internalType": "struct FileContract.SharedFile[]",
          "name": "",
          "type": "tuple[]"
        }
      ],
      "stateMutability": "view",
      "type": "function"
    },
    {
      "inputs": [
        {
          "internalType": "string",
          "name": "_did",
          "type": "string"
        },
        {
          "internalType": "string",
          "name": "_batchhash",
          "type": "string"
        },
        {
          "internalType": "string",
          "name": "_fileHash",
          "type": "string"
        }
      ],
      "name": "getBatchFile",
      "outputs": [
        {
          "internalType": "uint256",
          "name": "_index",
          "type": "uint256"
        }
      ],
      "stateMutability": "view",
      "type": "function"
    },
    {
      "inputs": [
        {
          "internalType": "string",
          "name": "_callerDid",
          "type": "string"
        },
        {
          "internalType": "string",
          "name": "_did",
          "type": "string"
        },
        {
          "internalType": "string",
          "name": "_batchhash",
          "type": "string"
        },
        {
          "internalType": "string",
          "name": "_fileHash",
          "type": "string"
        }
      ],
      "name": "getBatchFileCIDs",
      "outputs": [
        {
          "internalType": "uint256",
          "name": "_value",
          "type": "uint256"
        }
      ],
      "stateMutability": "view",
      "type": "function"
    },
    {
      "inputs": [
        {
          "internalType": "string",
          "name": "_did",
          "type": "string"
        },
        {
          "internalType": "address",
          "name": "_owner",
          "type": "address"
        }
      ],
      "name": "getSecretkey",
      "outputs": [
        {
          "internalType": "bytes32",
          "name": "_value",
          "type": "bytes32"
        }
      ],
      "stateMutability": "view",
      "type": "function"
    },
    {
      "inputs": [
        {
          "internalType": "string",
          "name": "_did",
          "type": "string"
        },
        {
          "internalType": "string",
          "name": "_batchhash",
          "type": "string"
        },
        {
          "internalType": "string",
          "name": "_fileHash",
          "type": "string"
        }
      ],
      "name": "getShareFile",
      "outputs": [
        {
          "internalType": "uint256",
          "name": "",
          "type": "uint256"
        },
        {
          "internalType": "string",
          "name": "",
          "type": "string"
        }
      ],
      "stateMutability": "view",
      "type": "function"
    },
    {
      "inputs": [],
      "name": "getTotalFilesCount",
      "outputs": [
        {
          "internalType": "uint256",
          "name": "_filesCount",
          "type": "uint256"
        },
        {
          "internalType": "uint256",
          "name": "_filesSize",
          "type": "uint256"
        }
      ],
      "stateMutability": "view",
      "type": "function"
    },
    {
      "inputs": [],
      "name": "getUserDid",
      "outputs": [
        {
          "internalType": "bool",
          "name": "success",
          "type": "bool"
        }
      ],
      "stateMutability": "view",
      "type": "function"
    },
    {
      "inputs": [
        {
          "internalType": "address",
          "name": "admin",
          "type": "address"
        },
        {
          "internalType": "address",
          "name": "_hasher",
          "type": "address"
        },
        {
          "internalType": "address",
          "name": "_verifier",
          "type": "address"
        },
        {
          "internalType": "address",
          "name": "_bethelInvoiceAddress",
          "type": "address"
        },
        {
          "internalType": "address",
          "name": "_kycInterfaceAddress",
          "type": "address"
        }
      ],
      "name": "initialize",
      "outputs": [],
      "stateMutability": "nonpayable",
      "type": "function"
    },
    {
      "inputs": [
        {
          "internalType": "string",
          "name": "_did",
          "type": "string"
        }
      ],
      "name": "isUserAdded",
      "outputs": [
        {
          "internalType": "bool",
          "name": "success",
          "type": "bool"
        }
      ],
      "stateMutability": "view",
      "type": "function"
    },
    {
      "inputs": [
        {
          "internalType": "string",
          "name": "_fileHash",
          "type": "string"
        },
        {
          "internalType": "string",
          "name": "_ownerDid",
          "type": "string"
        },
        {
          "internalType": "string",
          "name": "_sharedDid",
          "type": "string"
        },
        {
          "internalType": "string",
          "name": "_batchhash",
          "type": "string"
        },
        {
          "internalType": "string",
          "name": "_fileName",
          "type": "string"
        },
        {
          "internalType": "address",
          "name": "_owner",
          "type": "address"
        }
      ],
      "name": "shareFile",
      "outputs": [],
      "stateMutability": "nonpayable",
      "type": "function"
    },
    {
      "inputs": [
        {
          "internalType": "string",
          "name": "_did",
          "type": "string"
        },
        {
          "internalType": "string",
          "name": "_batchHash",
          "type": "string"
        },
        {
          "internalType": "address",
          "name": "_owner",
          "type": "address"
        }
      ],
      "name": "updateBatchVerifyStatus",
      "outputs": [],
      "stateMutability": "nonpayable",
      "type": "function"
    },
    {
      "inputs": [
        {
          "internalType": "string",
          "name": "_did",
          "type": "string"
        },
        {
          "internalType": "string",
          "name": "_filehash",
          "type": "string"
        },
        {
          "internalType": "address",
          "name": "_owner",
          "type": "address"
        }
      ],
      "name": "updateSharedFileVerifyStatus",
      "outputs": [],
      "stateMutability": "nonpayable",
      "type": "function"
    },
    {
      "inputs": [
        {
          "internalType": "string",
          "name": "_batchhash",
          "type": "string"
        },
        {
          "internalType": "uint256",
          "name": "_filescount",
          "type": "uint256"
        },
        {
          "components": [
            {
              "internalType": "string",
              "name": "FileHash",
              "type": "string"
            },
            {
              "internalType": "uint256",
              "name": "MerkleTreeIndex",
              "type": "uint256"
            }
          ],
          "internalType": "struct FileContract.File[]",
          "name": "_files",
          "type": "tuple[]"
        },
        {
          "internalType": "uint256",
          "name": "_batchSize",
          "type": "uint256"
        },
        {
          "internalType": "address",
          "name": "_owner",
          "type": "address"
        }
      ],
      "name": "uploadFileBatch",
      "outputs": [],
      "stateMutability": "nonpayable",
      "type": "function"
    },
    {
      "inputs": [
        {
          "internalType": "uint256[2]",
          "name": "a",
          "type": "uint256[2]"
        },
        {
          "internalType": "uint256[2][2]",
          "name": "b",
          "type": "uint256[2][2]"
        },
        {
          "internalType": "uint256[2]",
          "name": "c",
          "type": "uint256[2]"
        },
        {
          "internalType": "uint256[2]",
          "name": "input",
          "type": "uint256[2]"
        },
        {
          "internalType": "string",
          "name": "_did",
          "type": "string"
        },
        {
          "internalType": "address",
          "name": "_owner",
          "type": "address"
        }
      ],
      "name": "verifyuser",
      "outputs": [
        {
          "internalType": "bool",
          "name": "verified",
          "type": "bool"
        }
      ],
      "stateMutability": "nonpayable",
      "type": "function"
    }
  ],
  "bytecode": "0x60806040523480156200001157600080fd5b50600054610100900460ff1615808015620000335750600054600160ff909116105b80620000585750620000453062000261565b15801562000058575060005460ff166001145b620000805760405162461bcd60e51b8152600401620000779062000270565b60405180910390fd5b6000805460ff191660011790558015620000a4576000805461ff0019166101001790555b8015620000da576000805461ff00191690556040516001815260008051602062004cbc8339815191529060200160405180910390a15b50600054610100900460ff1615808015620000fc5750600054600160ff909116105b806200012157506200010e3062000261565b15801562000121575060005460ff166001145b620001405760405162461bcd60e51b8152600401620000779062000270565b6000805460ff19166001179055801562000164576000805461ff0019166101001790555b80156200019a576000805461ff00191690556040516001815260008051602062004cbc8339815191529060200160405180910390a15b50600054610100900460ff1615808015620001bc5750600054600160ff909116105b80620001e15750620001ce3062000261565b158015620001e1575060005460ff166001145b620002005760405162461bcd60e51b8152600401620000779062000270565b6000805460ff19166001179055801562000224576000805461ff0019166101001790555b80156200025a576000805461ff00191690556040516001815260008051602062004cbc8339815191529060200160405180910390a15b50620002be565b6001600160a01b03163b151590565b6020808252602e908201527f496e697469616c697a61626c653a20636f6e747261637420697320616c72656160408201526d191e481a5b9a5d1a585b1a5e995960921b606082015260800190565b6149ee80620002ce6000396000f3fe608060405234801561001057600080fd5b50600436106100e65760003560e01c806304cdf15c146100eb57806305b1736c1461011157806308caf33a146101295780631459457a1461014a57806314965f571461015f578063162fa10d146101725780631dfdabcc14610185578063354d7f101461019857806352a92fb5146101ab57806358142821146101be5780635d570c5a146101e95780636e1d5556146101fc5780639d5d1dd01461020f578063aafe13a714610222578063b323db2114610237578063b49be52014610257578063cd29679c14610274578063e80e076b14610287575b600080fd5b6100fe6100f9366004613988565b61029c565b6040519081526020015b60405180910390f35b610119610449565b6040519015158152602001610108565b61013c610137366004613988565b61046b565b604051610108929190613a5f565b61015d610158366004613a9c565b6105ab565b005b61011961016d366004613b51565b610966565b61015d610180366004613c2d565b610cfd565b61015d610193366004613ca0565b610e3e565b61015d6101a6366004613d50565b611145565b61015d6101b9366004613e24565b61135a565b6101d16101cc366004613ebc565b6117b2565b6040516001600160a01b039091168152602001610108565b6100fe6101f7366004613f00565b6117f9565b61011961020a366004613fac565b611887565b61015d61021d366004613c2d565b6118d2565b61022a611966565b6040516101089190613fe0565b61024a610245366004613fac565b611a1c565b60405161010891906140cd565b61025f611ab7565b60408051928352602083019190915201610108565b6100fe61028236600461411a565b611b2a565b61028f611c80565b6040516101089190614167565b6000336102a881611e62565b600085511180156102ba575060008451115b80156102c7575060008351115b6103295760405162461bcd60e51b815260206004820152602860248201527f4469642c204261746368686173682c2046696c65686173682063616e6e6f7420604482015267626520656d70747960c01b60648201526084015b60405180910390fd5b608154604051632e56367160e21b81526001600160a01b039091169063b958d9c490610359908890600401614200565b602060405180830381865afa158015610376573d6000803e3d6000fd5b505050506040513d601f19601f8201168201806040525081019061039a919061421a565b50336000908152607d60205260409020805461044091906103ba9061423c565b80601f01602080910402602001604051908101604052809291908181526020018280546103e69061423c565b80156104335780601f1061040857610100808354040283529160200191610433565b820191906000526020600020905b81548152906001019060200180831161041657829003601f168201915b50505050508686866117f9565b95945050505050565b336000908152607d6020526040812080546104639061423c565b151592915050565b600060603361047981611e62565b6000865111801561048b575060008551115b8015610498575060008451115b6104fa5760405162461bcd60e51b815260206004820152602d60248201527f4f776e65726469642c204261746368686173682c2046696c656861736820636160448201526c6e6e6f7420626520656d70747960981b6064820152608401610320565b336000908152607d60205260409020805461059e91906105199061423c565b80601f01602080910402602001604051908101604052809291908181526020018280546105459061423c565b80156105925780601f1061056757610100808354040283529160200191610592565b820191906000526020600020905b81548152906001019060200180831161057557829003601f168201915b50505050508786611e8f565b9250925050935093915050565b600054610100900460ff16158080156105cb5750600054600160ff909116105b806105e55750303b1580156105e5575060005460ff166001145b6106485760405162461bcd60e51b815260206004820152602e60248201527f496e697469616c697a61626c653a20636f6e747261637420697320616c72656160448201526d191e481a5b9a5d1a585b1a5e995960921b6064820152608401610320565b6000805460ff19166001179055801561066b576000805461ff0019166101001790555b6001600160a01b0386161580159061068b57506001600160a01b03851615155b801561069f57506001600160a01b03841615155b80156106b357506001600160a01b03831615155b80156106c757506001600160a01b03821615155b6107245760405162461bcd60e51b815260206004820152602860248201527f496e70757420616464726573732063616e6e6f7420626520746865207a65726f604482015267206164647265737360c01b6064820152608401610320565b607e80546001600160a01b03199081166001600160a01b0389811691909117909255608080548216888416178155607f8054831688851617905560818054831687851617905560828054909216928516929092179055600060025560408051610140810182527f33418cd1669b4e7f4bf473ec2db9a489b3d6f9f11b91d0b3b6004432ab53d60b81527f350ffb7c45ccf8940c163b192252495b614def57272b6f8d9a53a5b3e44ef8bd60208201527fc8acb7af851baf91a82b1ad46b01ac506ce80387170890dea377d21e85202584918101919091527f5171d273154b2764aa5903210e16bd1899b18648d1358d41887a113227e9acc560608201527f986c06cb04d613f57cf7a1da410e0f22c794e1ec1ae125898cfc9662a5e5be59918101919091527f6eb9a05106eff3031621027680204b2e9326b0e5191bd62f3cd7bf7f6d94d02760a08201527fa1cbc8691493398c061f547b4882edbb6a38ce1730c8a2605e9d8138d4ad122660c08201527f850aa72f3d8bc65181e9c29d76f7614e2f939ade9442abac29fc8a0329deeffd60e08201527fe9c6f678752dbfc89028bf8b9b1cce608b34b742b75fbae878ec2c6ae803dc1e6101008201527fa9e22c2e1f4531bc4389032bb472b97c25a7298d27ba4fefd75439a1be46f77f61012082015261091790600490600a613850565b50801561095e576000805461ff0019169055604051600181527f7f26b83ff96e1f2b6a682f133852f6798a09c465da95921460cefb38474024989060200160405180910390a15b505050505050565b6000610970612028565b8651158015906109835750602087015115155b8015610990575085515115155b80156109a0575085516020015115155b80156109b0575060208601515115155b80156109c25750602080870151015115155b80156109ce5750845115155b80156109dd5750602085015115155b80156109e95750835115155b80156109f85750602084015115155b610a445760405162461bcd60e51b815260206004820152601d60248201527f50726f6f6620656c656d656e74732063616e6e6f74206265207a65726f0000006044820152606401610320565b83516020808601516000818152608b9092526040909120600101546001600160a01b03858116911614610aa85760405162461bcd60e51b815260206004820152600c60248201526b24b73b30b634b2102ab9b2b960a11b6044820152606401610320565b84604051602001610ab9919061428c565b60408051601f1981840301815282825280516020918201206000858152608b8352929092209192610aeb92910161431b565b6040516020818303038152906040528051906020012014610b375760405162461bcd60e51b8152600401610320906020808252600490820152633ab9b2b960e11b604082015260600190565b60008281526088602052604090205460ff16610b805760405162461bcd60e51b81526020600482015260086024820152671b9bdd0b5c9bdbdd60c21b6044820152606401610320565b607f5460408051606081018252848152602081018490526001600160a01b0380881682840181905292519293600093911691610bc5918e918e918e919060240161434a565b60408051601f198184030181529181526020820180516001600160e01b03166308a3cff560e11b17905251610bfa919061428c565b6000604051808303816000865af19150503d8060008114610c37576040519150601f19603f3d011682016040523d82523d6000602084013e610c3c565b606091505b5050905080610c7d5760405162461bcd60e51b815260206004820152600d60248201526c34b73b30b634b216b83937b7b360991b6044820152606401610320565b6000838152608960209081526040918290208054600160ff19909116811790915582516001600160a01b038a1681529182018690528183015290517fdcea7e4556f6d2711836f8fc414e89488a9cf0ed8189cc1cbc5f0461ded8935b9181900360600190a16001945050505050610cf360018055565b9695505050505050565b80610d0781611e62565b60008451118015610d19575060008351115b8015610d2d57506001600160a01b03821615155b610d8b5760405162461bcd60e51b815260206004820152602960248201527f4f776e65726469642c2046696c65686173682c204f776e65722063616e6e6f7460448201526820626520656d70747960b81b6064820152608401610320565b6001600160a01b0382166000908152607d602052604090208054610e389190610db39061423c565b80601f0160208091040260200160405190810160405280929190818152602001828054610ddf9061423c565b8015610e2c5780601f10610e0157610100808354040283529160200191610e2c565b820191906000526020600020905b815481529060010190602001808311610e0f57829003601f168201915b50505050508585612087565b50505050565b80610e4881611e62565b60008751118015610e5857508386145b8015610e645750600083115b8015610e705750600086115b8015610e8457506001600160a01b03821615155b610ef65760405162461bcd60e51b815260206004820152603e60248201527f4261746368686173682c2046696c6573636f756e742c2046696c65732c20426160448201527f74636873697a65202c4f776e65722063616e6e6f7420626520656d70747900006064820152608401610320565b6081546001600160a01b038381166000908152607d6020526040908190209051632735783f60e11b81529190921691634e6af07e91610f399187916004016143ce565b602060405180830381865afa158015610f56573d6000803e3d6000fd5b505050506040513d601f19601f82011682018060405250810190610f7a919061421a565b506001600160a01b0382166000908152607d60205260409020805461102b9190610fa39061423c565b80601f0160208091040260200160405190810160405280929190818152602001828054610fcf9061423c565b801561101c5780601f10610ff15761010080835404028352916020019161101c565b820191906000526020600020905b815481529060010190602001808311610fff57829003601f168201915b5050505050888888888861217c565b6001600160a01b0382166000908152607d60205260409081902090518791608691611056919061431b565b908152602001604051809103902060008282546110739190614477565b90915550506001600160a01b0382166000908152607d602052604090819020905184916087916110a3919061431b565b908152602001604051809103902060008282546110c09190614477565b90915550506040516110d390889061428c565b604080519182900382206001600160a01b0385166000908152607d602052919091209091611101919061431b565b60405190819003812060018252907f86a6a7180c4940b2e891f8d56f4d498b4f2ec49f60da97d9867b0c62faed5c2c9060200160405180910390a350505050505050565b8061114f81611e62565b60008751118015611161575060008651115b801561116e575060008551115b801561117b575060008451115b8015611188575060008351115b801561119c57506001600160a01b03821615155b61121f5760405162461bcd60e51b815260206004820152604860248201527f46696c65686173682c204f776e65726469642c2053686172656469642c20426160448201527f746368686173682c2046696c656e616d652c204f776e65722063616e6e6f7420606482015267626520656d70747960c01b608482015260a401610320565b6001600160a01b0382166000908152607d6020526040902080546112cf91906112479061423c565b80601f01602080910402602001604051908101604052809291908181526020018280546112739061423c565b80156112c05780601f10611295576101008083540402835291602001916112c0565b820191906000526020600020905b8154815290600101906020018083116112a357829003601f168201915b5050505050888888888861247c565b866040516112dd919061428c565b6040518091039020856040516112f3919061428c565b604080519182900382206001600160a01b0386166000908152607d602052919091209091611321919061431b565b604051908190038120907f53aa85d8994d821e958a3d8edf3f2c4afd7d14ca011df78b05c74e3ee8d9008b90600090a450505050505050565b611362612028565b60008451118015611374575060008351115b801561139457506000825111801561139457506001600160a01b03811615155b6113fe5760405162461bcd60e51b815260206004820152603560248201527f436f6d6d69746d656e742c204469642c204e756c6c6966696572486173682c206044820152744f776e65722063616e6e6f7420626520656d70747960581b6064820152608401610320565b6000611409856127d7565b90506000611416846127d7565b9050600061142483876128d5565b6000818152608860209081526040808320805460ff19166001179055805180820182528a81526001600160a01b0389168184018190528452607d909252909120805492935090916114749061423c565b1590506114b55760405162461bcd60e51b815260206004820152600f60248201526e11125108185b1c9958591e481cd95d608a1b6044820152606401610320565b80608a82600001516040516114ca919061428c565b908152604051908190036020019020815181906114e790826144e5565b5060209190910151600190910180546001600160a01b0319166001600160a01b039092169190911790558051604051608d916115229161428c565b9081526040805160209281900383019020805460018101825560009182528382200180546001600160a01b0319166001600160a01b038a81169190911790915584840151168152607d90925290208151829190819061158190826144e5565b5060209190910151600191820180546001600160a01b0319166001600160a01b039092169190911790558151604051608c916115bc9161428c565b9081526040805160209281900383019020805460ff1916931515939093179092556000858152608b90915220815182919081906115f990826144e5565b5060209190910151600190910180546001600160a01b0319166001600160a01b039092169190911790556040517f39eeade2b5592f3db927120b5ed58507e9d8de40aec885f9a87d2c968d890d4c90601290611656908a9061428c565b9081526040519081900360200181209190915561167490889061428c565b604080519182900382206001600160a01b038816835260208301869052917fc576f17d8033f236a9579a91ac54a8639edb2b3919c8c4b564854f9789657a72910160405180910390a2866040516116cb919061428c565b60405190819003812060018252907f3894ac881251aad7786695b4486eb386dfebc5842372130d68a7021a70bce84e9060200160405180910390a2600061171188612c02565b905080608e89604051611724919061428c565b9081526020016040518091039020819055507fec4d5a0595fb1e296ed6cdb6776c332333356223cd6c2421af7167886840df858887600160405161176a9392919061459e565b60405180910390a16001600160a01b0386166000908152607d6020526040812080546117959061423c565b9050116117a4576117a46145d1565b5050505050610e3860018055565b8151602081840181018051608d8252928201918501919091209190528054829081106117dd57600080fd5b6000918252602090912001546001600160a01b03169150829050565b600061180785858585612c37565b61185e5760405162461bcd60e51b815260206004820152602260248201527f676574426174636846696c65434944732076616c69646174696f6e206661696c604482015261195960f21b6064820152608401610320565b60198260405161186e919061428c565b9081526020016040518091039020549050949350505050565b6000808251116118a95760405162461bcd60e51b8152600401610320906145e7565b608c826040516118b9919061428c565b9081526040519081900360200190205460ff1692915050565b806118dc81611e62565b600084511180156118ee575060008351115b801561190257506001600160a01b03821615155b61195c5760405162461bcd60e51b815260206004820152602560248201527f4469642c204261746368686173682c204f776e65722063616e6e6f7420626520604482015264656d70747960d81b6064820152608401610320565b610e388484612d43565b60603361197281611e62565b336000908152607d602052604081208054611a1491906119919061423c565b80601f01602080910402602001604051908101604052809291908181526020018280546119bd9061423c565b8015611a0a5780601f106119df57610100808354040283529160200191611a0a565b820191906000526020600020905b8154815290600101906020018083116119ed57829003601f168201915b5050505050612e4f565b9250505b5090565b60606000825111611a3f5760405162461bcd60e51b8152600401610320906145e7565b608d82604051611a4f919061428c565b9081526040805191829003602090810183208054808302850183019093528284529190830182828015611aab57602002820191906000526020600020905b81546001600160a01b03168152600190910190602001808311611a8d575b50505050509050919050565b60008033611ac481611e62565b336000908152607d6020526040908190209051608691611ae39161431b565b90815260408051918290036020908101832054336000908152607d9092529190209091608791611b129161431b565b90815260200160405180910390205492509250509091565b600081611b3681611e62565b60008451118015611b4f57506001600160a01b03831615155b611bad5760405162461bcd60e51b815260206004820152602960248201527f4469642c204e756c6c6966696572486173682c204f776e65722063616e6e6f7460448201526820626520656d70747960b81b6064820152608401610320565b83604051602001611bbe919061428c565b60405160208183030381529060405280519060200120608a85604051611be4919061428c565b90815260405160209181900382018120611c009290910161431b565b6040516020818303038152906040528051906020012014611c585760405162461bcd60e51b8152602060048201526012602482015271757365722063616e6e6f742076657269667960701b6044820152606401610320565b608e84604051611c68919061428c565b90815260200160405180910390205491505092915050565b606033611c8c81611e62565b336000908152607d6020526040908190209051601891611cab9161431b565b9081526020016040518091039020805480602002602001604051908101604052809291908181526020016000905b82821015611e5857838290600052602060002090600502016040518060a0016040529081600082018054611d0c9061423c565b80601f0160208091040260200160405190810160405280929190818152602001828054611d389061423c565b8015611d855780601f10611d5a57610100808354040283529160200191611d85565b820191906000526020600020905b815481529060010190602001808311611d6857829003601f168201915b50505050508152602001600182018054611d9e9061423c565b80601f0160208091040260200160405190810160405280929190818152602001828054611dca9061423c565b8015611e175780601f10611dec57610100808354040283529160200191611e17565b820191906000526020600020905b815481529060010190602001808311611dfa57829003601f168201915b505050918352505060028201546020808301919091526003830154604083015260049092015460ff1615156060909101529082526001929092019101611cd9565b5050505091505090565b6001600160a01b038082166000818152607d602052604090206001015490911614611e8c57600080fd5b50565b60006060611e9e8585856135a5565b611ef55760405162461bcd60e51b815260206004820152602260248201527f676574536861726546696c65434944732056616c69646174696f6e206661696c604482015261195960f21b6064820152608401610320565b600e601b85604051611f07919061428c565b908152602001604051809103902084604051611f23919061428c565b9081526020016040518091039020600301604051611f41919061431b565b908152602001604051809103902060010154601b85604051611f63919061428c565b908152602001604051809103902084604051611f7f919061428c565b9081526020016040518091039020600401808054611f9c9061423c565b80601f0160208091040260200160405190810160405280929190818152602001828054611fc89061423c565b80156120155780601f10611fea57610100808354040283529160200191612015565b820191906000526020600020905b815481529060010190602001808311611ff857829003601f168201915b5050505050905091509150935093915050565b60026001540361207a5760405162461bcd60e51b815260206004820152601f60248201527f5265656e7472616e637947756172643a207265656e7472616e742063616c6c006044820152606401610320565b6002600155565b60018055565b6120928383836135a5565b6120de5760405162461bcd60e51b815260206004820152601d60248201527f43616e6e6f742076657269667920746865207368617265642066696c650000006044820152606401610320565b6000601b836040516120f0919061428c565b90815260200160405180910390208260405161210c919061428c565b90815260405190819003602001812060068101805460ff19166001179055915061213790849061428c565b60405190819003812060018252907fff7c592f28a610e7695195a3f735a3d59ae4f1dbc1f7c22ca626586ff0eec5d69060200160405180910390a2610e388383613670565b600160118760405161218e919061428c565b9081526020016040518091039020866040516121aa919061428c565b908152604051908190036020019020805491151560ff1990921691909117905560005b848110156123045760008484838181106121e9576121e9614276565b90506020028101906121fb9190614614565b6122049061462a565b90506001601389604051612218919061428c565b90815260405190819003602001812083519091612235919061428c565b90815260405160209181900382018120805460ff191693151593909317909255820151825190916019916122689161428c565b908152604051908190036020018120919091558151600091600e9161228c9161428c565b908152604051908190036020019020825190915081906122ac90826144e5565b506020820151600182015581516040518291600e916122cb919061428c565b908152604051908190036020019020806122e58382614695565b50600191820154910155508190506122fc81614769565b9150506121cd565b506000600f86604051612317919061428c565b90815260405190819003602001902090508061233388826144e5565b506001810161234287826144e5565b50600281018590556003810182905560048101805460ff1916905560405160189061236e90899061428c565b90815260405160209181900382019020805460018101825560009182529190208291600502018061239f8382614695565b506001818101906123b290840182614695565b5060028281015490820155600380830154908201556004918201549101805460ff191660ff90921615159190911790556040516011906123f390899061428c565b90815260200160405180910390208660405161240f919061428c565b9081526040519081900360200190205460ff1615156001146124735760405162461bcd60e51b815260206004820152601e60248201527f426174636820726f6f7420766572696669636174696f6e206661696c656400006044820152606401610320565b50505050505050565b612484612028565b82805190602001208480519060200120141580156124a957506124a986858488612c37565b6124f55760405162461bcd60e51b815260206004820181905260248201527f7361766564536861726546696c652056616c69646174696f6e206661696c65646044820152606401610320565b6000601a86604051612507919061428c565b9081526040516020918190038201902080546001810182556000828152929092209092500161253685826144e5565b506000805b825481101561259d57858051906020012083828154811061255e5761255e614276565b90600052602060002001604051612575919061431b565b60405180910390200361258b576001915061259d565b8061259581614769565b91505061253b565b50806125eb5760405162461bcd60e51b815260206004820152601e60248201527f546869732066696c65206973206e6f742073686172656420746f20796f7500006044820152606401610320565b60006040518060e00160405280888152602001878152602001868152602001898152602001858152602001600e8a604051612626919061428c565b908152602001604051809103902060010154815260200160001515815250905080601b87604051612657919061428c565b908152602001604051809103902089604051612673919061428c565b9081526040519081900360200190208151819061269090826144e5565b50602082015160018201906126a590826144e5565b50604082015160028201906126ba90826144e5565b50606082015160038201906126cf90826144e5565b50608082015160048201906126e490826144e5565b5060a0820151600582015560c0909101516006909101805460ff1916911515919091179055604051601c9061271a90889061428c565b90815260405160209181900382019020805460018101825560009182529190208251839260070290910190819061275190826144e5565b506020820151600182019061276690826144e5565b506040820151600282019061277b90826144e5565b506060820151600382019061279090826144e5565b50608082015160048201906127a590826144e5565b5060a0820151600582015560c0909101516006909101805460ff19169115159190911790555061095e91506120819050565b60008181805b82518110156128cd57603060f81b8382815181106127fd576127fd614276565b01602001516001600160f81b0319161080159061283e5750603960f81b83828151811061282c5761282c614276565b01602001516001600160f81b03191611155b61287e5760405162461bcd60e51b815260206004820152601160248201527024b73b30b634b21031b430b930b1ba32b960791b6044820152606401610320565b603083828151811061289257612892614276565b01602001516128a4919060f81c614782565b6128af83600a614795565b6128b99190614477565b9150806128c581614769565b9150506127dd565b509392505050565b60006128e3600a6002614890565b6002541061291f5760405162461bcd60e51b81526020600482015260096024820152681d1c99594b599d5b1b60ba1b6044820152606401610320565b821580159061292f575060008251115b6129865760405162461bcd60e51b815260206004820152602260248201527f436f6d6d69746d656e742c204449442063616e6e6f7420626520616e20656d70604482015261747960f01b6064820152608401610320565b600061299061388a565b61299861388a565b6002548660005b600a60ff82161015612b6e576000806129b96002866148b5565b600003612a385783915060048360ff16600a81106129d9576129d9614276565b0154905060048360ff16600a81106129f3576129f3614276565b0154878460ff16600a8110612a0a57612a0a614276565b602002015260008660ff8516600a8110612a2657612a26614276565b60ff9092166020929092020152612a8e565b505060ff811660008181526083602052604090205490839082908890600a8110612a6457612a64614276565b602002015260018660ff8516600a8110612a8057612a80614276565b60ff90921660209290920201525b83608360008560ff1660ff168152602001908152602001600020819055506000608060009054906101000a90046001600160a01b03166001600160a01b031663d622e5a46040518060400160405280868152602001858152508e6040518363ffffffff1660e01b8152600401612b059291906148c9565b602060405180830381865afa158015612b22573d6000803e3d6000fd5b505050506040513d601f19601f82011682018060405250810190612b4691906148e4565b9450849050612b566002876148fd565b95505050508080612b6690614911565b91505061299f565b50809450600160026000828254612b859190614477565b909155505060008881526084602052604090819020805460ff1916600117905551612bb190889061428c565b60405180910390207ff7b64783eeabd9c9ba0f432881b754c4dae2c8811785729858cc9209b22ad256868686604051612bec93929190614930565b60405180910390a2509293505050505b92915050565b6000808242604051602001612c18929190614996565b60408051601f1981840301815291905280516020909101209392505050565b600083805190602001208580519060200120148015612c965750601185604051612c61919061428c565b908152602001604051809103902083604051612c7d919061428c565b9081526040519081900360200190205460ff1615156001145b8015612ce25750601385604051612cad919061428c565b908152602001604051809103902082604051612cc9919061428c565b9081526040519081900360200190205460ff1615156001145b612d385760405162461bcd60e51b815260206004820152602160248201527f766572696679426174636846696c652076616c69646174696f6e206661696c656044820152601960fa1b6064820152608401610320565b506001949350505050565b601182604051612d53919061428c565b908152602001604051809103902081604051612d6f919061428c565b9081526040519081900360200190205460ff16612dc85760405162461bcd60e51b8152602060048201526017602482015276086c2dcdcdee840eccae4d2ccf240e8d0ca40c4c2e8c6d604b1b6044820152606401610320565b6000600f82604051612dda919061428c565b90815260405190819003602001812060048101805460ff191660011790559150612e0590849061428c565b60405190819003812060018252907f03597dc9f270e6a92ae04f0d2465d7df0ee3de0c944d5ab75be4403357d649499060200160405180910390a2612e4a8383613760565b505050565b60606000601c83604051612e63919061428c565b9081526020016040518091039020805480602002602001604051908101604052809291908181526020016000905b828210156131bc57838290600052602060002090600702016040518060e0016040529081600082018054612ec49061423c565b80601f0160208091040260200160405190810160405280929190818152602001828054612ef09061423c565b8015612f3d5780601f10612f1257610100808354040283529160200191612f3d565b820191906000526020600020905b815481529060010190602001808311612f2057829003601f168201915b50505050508152602001600182018054612f569061423c565b80601f0160208091040260200160405190810160405280929190818152602001828054612f829061423c565b8015612fcf5780601f10612fa457610100808354040283529160200191612fcf565b820191906000526020600020905b815481529060010190602001808311612fb257829003601f168201915b50505050508152602001600282018054612fe89061423c565b80601f01602080910402602001604051908101604052809291908181526020018280546130149061423c565b80156130615780601f1061303657610100808354040283529160200191613061565b820191906000526020600020905b81548152906001019060200180831161304457829003601f168201915b5050505050815260200160038201805461307a9061423c565b80601f01602080910402602001604051908101604052809291908181526020018280546130a69061423c565b80156130f35780601f106130c8576101008083540402835291602001916130f3565b820191906000526020600020905b8154815290600101906020018083116130d657829003601f168201915b5050505050815260200160048201805461310c9061423c565b80601f01602080910402602001604051908101604052809291908181526020018280546131389061423c565b80156131855780601f1061315a57610100808354040283529160200191613185565b820191906000526020600020905b81548152906001019060200180831161316857829003601f168201915b5050509183525050600582015460208083019190915260069092015460ff1615156040909101529082526001929092019101612e91565b505050509050806000815181106131d5576131d5614276565b602002602001015160200151805190602001208380519060200120146132305760405162461bcd60e51b815260206004820152601060248201526f1554d154881b9bdd08185b1b1bddd95960821b6044820152606401610320565b601c83604051613240919061428c565b9081526020016040518091039020805480602002602001604051908101604052809291908181526020016000905b8282101561359957838290600052602060002090600702016040518060e00160405290816000820180546132a19061423c565b80601f01602080910402602001604051908101604052809291908181526020018280546132cd9061423c565b801561331a5780601f106132ef5761010080835404028352916020019161331a565b820191906000526020600020905b8154815290600101906020018083116132fd57829003601f168201915b505050505081526020016001820180546133339061423c565b80601f016020809104026020016040519081016040528092919081815260200182805461335f9061423c565b80156133ac5780601f10613381576101008083540402835291602001916133ac565b820191906000526020600020905b81548152906001019060200180831161338f57829003601f168201915b505050505081526020016002820180546133c59061423c565b80601f01602080910402602001604051908101604052809291908181526020018280546133f19061423c565b801561343e5780601f106134135761010080835404028352916020019161343e565b820191906000526020600020905b81548152906001019060200180831161342157829003601f168201915b505050505081526020016003820180546134579061423c565b80601f01602080910402602001604051908101604052809291908181526020018280546134839061423c565b80156134d05780601f106134a5576101008083540402835291602001916134d0565b820191906000526020600020905b8154815290600101906020018083116134b357829003601f168201915b505050505081526020016004820180546134e99061423c565b80601f01602080910402602001604051908101604052809291908181526020018280546135159061423c565b80156135625780601f1061353757610100808354040283529160200191613562565b820191906000526020600020905b81548152906001019060200180831161354557829003601f168201915b5050509183525050600582015460208083019190915260069092015460ff161515604090910152908252600192909201910161326e565b50505050915050919050565b60008280519060200120848051906020012014801561361b57508180519060200120601b846040516135d7919061428c565b9081526020016040518091039020836040516135f3919061428c565b9081526020016040518091039020600301604051613611919061431b565b6040518091039020145b6136665760405162461bcd60e51b815260206004820152601c60248201527b15985b1a59185d1a5bdb8814da185c9948119a5b194819985a5b195960221b6044820152606401610320565b5060019392505050565b6000601c83604051613682919061428c565b9081526020016040518091039020905060005b8154811015610e3857826040516020016136af919061428c565b604051602081830303815290604052805190602001208282815481106136d7576136d7614276565b90600052602060002090600702016002016040516020016136f8919061431b565b604051602081830303815290604052805190602001200361374e57600182828154811061372757613727614276565b60009182526020909120600790910201600601805460ff1916911515919091179055610e38565b8061375881614769565b915050613695565b6000601883604051613772919061428c565b9081526020016040518091039020905060005b8154811015610e38578260405160200161379f919061428c565b604051602081830303815290604052805190602001208282815481106137c7576137c7614276565b90600052602060002090600502016001016040516020016137e8919061431b565b604051602081830303815290604052805190602001200361383e57600182828154811061381757613817614276565b60009182526020909120600590910201600401805460ff1916911515919091179055610e38565b8061384881614769565b915050613785565b82600a810192821561387e579160200282015b8281111561387e578251825591602001919060010190613863565b50611a189291506138a9565b604051806101400160405280600a906020820280368337509192915050565b5b80821115611a1857600081556001016138aa565b634e487b7160e01b600052604160045260246000fd5b604080519081016001600160401b03811182821017156138f6576138f66138be565b60405290565b600082601f83011261390d57600080fd5b81356001600160401b0380821115613927576139276138be565b604051601f8301601f19908116603f0116810190828211818310171561394f5761394f6138be565b8160405283815286602085880101111561396857600080fd5b836020870160208301376000602085830101528094505050505092915050565b60008060006060848603121561399d57600080fd5b83356001600160401b03808211156139b457600080fd5b6139c0878388016138fc565b945060208601359150808211156139d657600080fd5b6139e2878388016138fc565b935060408601359150808211156139f857600080fd5b50613a05868287016138fc565b9150509250925092565b60005b83811015613a2a578181015183820152602001613a12565b50506000910152565b60008151808452613a4b816020860160208601613a0f565b601f01601f19169290920160200192915050565b828152604060208201526000613a786040830184613a33565b949350505050565b80356001600160a01b0381168114613a9757600080fd5b919050565b600080600080600060a08688031215613ab457600080fd5b613abd86613a80565b9450613acb60208701613a80565b9350613ad960408701613a80565b9250613ae760608701613a80565b9150613af560808701613a80565b90509295509295909350565b600082601f830112613b1257600080fd5b613b1a6138d4565b806040840185811115613b2c57600080fd5b845b81811015613b46578035845260209384019301613b2e565b509095945050505050565b6000806000806000806101808789031215613b6b57600080fd5b613b758888613b01565b9550604088605f890112613b8857600080fd5b613b906138d4565b8060c08a018b811115613ba257600080fd5b838b015b81811015613bc757613bb88d82613b01565b84526020909301928401613ba6565b50819850613bd58c82613b01565b975050505050613be9886101008901613b01565b92506101408701356001600160401b03811115613c0557600080fd5b613c1189828a016138fc565b925050613c216101608801613a80565b90509295509295509295565b600080600060608486031215613c4257600080fd5b83356001600160401b0380821115613c5957600080fd5b613c65878388016138fc565b94506020860135915080821115613c7b57600080fd5b50613c88868287016138fc565b925050613c9760408501613a80565b90509250925092565b60008060008060008060a08789031215613cb957600080fd5b86356001600160401b0380821115613cd057600080fd5b613cdc8a838b016138fc565b9750602089013596506040890135915080821115613cf957600080fd5b818901915089601f830112613d0d57600080fd5b813581811115613d1c57600080fd5b8a60208260051b8501011115613d3157600080fd5b60208301965080955050505060608701359150613c2160808801613a80565b60008060008060008060c08789031215613d6957600080fd5b86356001600160401b0380821115613d8057600080fd5b613d8c8a838b016138fc565b97506020890135915080821115613da257600080fd5b613dae8a838b016138fc565b96506040890135915080821115613dc457600080fd5b613dd08a838b016138fc565b95506060890135915080821115613de657600080fd5b613df28a838b016138fc565b94506080890135915080821115613e0857600080fd5b50613e1589828a016138fc565b925050613c2160a08801613a80565b60008060008060808587031215613e3a57600080fd5b84356001600160401b0380821115613e5157600080fd5b613e5d888389016138fc565b95506020870135915080821115613e7357600080fd5b613e7f888389016138fc565b94506040870135915080821115613e9557600080fd5b50613ea2878288016138fc565b925050613eb160608601613a80565b905092959194509250565b60008060408385031215613ecf57600080fd5b82356001600160401b03811115613ee557600080fd5b613ef1858286016138fc565b95602094909401359450505050565b60008060008060808587031215613f1657600080fd5b84356001600160401b0380821115613f2d57600080fd5b613f39888389016138fc565b95506020870135915080821115613f4f57600080fd5b613f5b888389016138fc565b94506040870135915080821115613f7157600080fd5b613f7d888389016138fc565b93506060870135915080821115613f9357600080fd5b50613fa0878288016138fc565b91505092959194509250565b600060208284031215613fbe57600080fd5b81356001600160401b03811115613fd457600080fd5b613a78848285016138fc565b60006020808301818452808551808352604092508286019150828160051b87010184880160005b838110156140bf57603f19898403018552815160e0815181865261402d82870182613a33565b915050888201518582038a8701526140458282613a33565b915050878201518582038987015261405d8282613a33565b915050606080830151868303828801526140778382613a33565b92505050608080830151868303828801526140928382613a33565b60a0858101519089015260c094850151151594909701939093525050509386019390860190600101614007565b509098975050505050505050565b6020808252825182820181905260009190848201906040850190845b8181101561410e5783516001600160a01b0316835292840192918401916001016140e9565b50909695505050505050565b6000806040838503121561412d57600080fd5b82356001600160401b0381111561414357600080fd5b61414f858286016138fc565b92505061415e60208401613a80565b90509250929050565b60006020808301818452808551808352604092508286019150828160051b87010184880160005b838110156140bf57603f19898403018552815160a081518186526141b482870182613a33565b915050888201518582038a8701526141cc8282613a33565b838a0151878b015260608085015190880152608093840151151593909601929092525050938601939086019060010161418e565b6020815260006142136020830184613a33565b9392505050565b60006020828403121561422c57600080fd5b8151801515811461421357600080fd5b600181811c9082168061425057607f821691505b60208210810361427057634e487b7160e01b600052602260045260246000fd5b50919050565b634e487b7160e01b600052603260045260246000fd5b6000825161429e818460208701613a0f565b9190910192915050565b600081546142b58161423c565b600182811680156142cd57600181146142e257614311565b60ff1984168752821515830287019450614311565b8560005260208060002060005b858110156143085781548a8201529084019082016142ef565b50505082870194505b5050505092915050565b600061421382846142a8565b8060005b6002811015610e3857815184526020938401939091019060010161432b565b61016081016143598287614327565b60408083018660005b600281101561438957614376838351614327565b9183019160209190910190600101614362565b5050505061439a60c0830185614327565b61010082018360005b60038110156143c25781518352602092830192909101906001016143a3565b50505095945050505050565b82815260006020604081840152600084546143e88161423c565b806040870152606060018084166000811461440a576001811461442457614452565b60ff1985168984015283151560051b890183019550614452565b896000528660002060005b8581101561444a5781548b820186015290830190880161442f565b8a0184019650505b50939998505050505050505050565b634e487b7160e01b600052601160045260246000fd5b80820180821115612bfc57612bfc614461565b601f821115612e4a57600081815260208120601f850160051c810160208610156144b15750805b601f850160051c820191505b8181101561095e578281556001016144bd565b600019600383901b1c191660019190911b1790565b81516001600160401b038111156144fe576144fe6138be565b6145128161450c845461423c565b8461448a565b602080601f831160018114614541576000841561452f5750858301515b61453985826144d0565b86555061095e565b600085815260208120601f198616915b8281101561457057888601518255948401946001909101908401614551565b508582101561458e5787850151600019600388901b60f8161c191681555b5050505050600190811b01905550565b6060815260006145b16060830186613a33565b6001600160a01b0394909416602083015250901515604090910152919050565b634e487b7160e01b600052600160045260246000fd5b6020808252601390820152724469642063616e6e6f7420626520656d70747960681b604082015260600190565b60008235603e1983360301811261429e57600080fd5b60006040823603121561463c57600080fd5b604080519081016001600160401b03808211838310171561465f5761465f6138be565b81604052843591508082111561467457600080fd5b50614681368286016138fc565b825250602092830135928101929092525090565b8181036146a0575050565b6146aa825461423c565b6001600160401b038111156146c1576146c16138be565b6146cf8161450c845461423c565b6000601f8211600181146146fd57600083156146eb5750848201545b6146f584826144d0565b855550614762565b600085815260209020601f19841690600086815260209020845b838110156147375782860154825560019586019590910190602001614717565b50858310156147555781850154600019600388901b60f8161c191681555b50505060018360011b0184555b5050505050565b60006001820161477b5761477b614461565b5060010190565b81810381811115612bfc57612bfc614461565b8082028115828204841417612bfc57612bfc614461565b600181815b808511156147e75781600019048211156147cd576147cd614461565b808516156147da57918102915b93841c93908002906147b1565b509250929050565b6000826147fe57506001612bfc565b8161480b57506000612bfc565b8160018114614821576002811461482b57614847565b6001915050612bfc565b60ff84111561483c5761483c614461565b50506001821b612bfc565b5060208310610133831016604e8410600b841016171561486a575081810a612bfc565b61487483836147ac565b806000190482111561488857614888614461565b029392505050565b600061421360ff8416836147ef565b634e487b7160e01b600052601260045260246000fd5b6000826148c4576148c461489f565b500690565b606081016148d78285614327565b8260408301529392505050565b6000602082840312156148f657600080fd5b5051919050565b60008261490c5761490c61489f565b500490565b600060ff821660ff810361492757614927614461565b60010192915050565b8381526102a0810160208083018560005b600a81101561495e57815183529183019190830190600101614941565b50505061016083018460005b600a81101561498a57815160ff168352918301919083019060010161496a565b50505050949350505050565b600083516149a8818460208801613a0f565b919091019182525060200191905056fea26469706673582212200ddddceeb2ab119562b355dbee5646e846c22078209c0b8afec0a6ea5c32d54064736f6c634300081400337f26b83ff96e1f2b6a682f133852f6798a09c465da95921460cefb3847402498",
  "linkReferences": {},
  "deployedLinkReferences": {}
}